:10065700014C01014D00014F00014B000150000109
:1006670053000152000154000248000002550000E7
:06067700015100014E00DC
:10072C00E4FDFCC3ED9FEC9E50070DBD00010C8059
:01073C00F2CA
:01073D002299
:0406A400AB07AA06F0
:1006A800E4F55DF55EF583F5827C007D0CAF03AE65
:1006B80002120039C3E5829FE5839E5003A380E9B7
:0106C800220F
:0F073E00BF0104D2A8D288EF7004C2A8C28822DB
:0F074D00BF0104D28AD2AAEF7004C28AC2AA22C4
:10060200EF601424FE601A14601A14601A14600A4F
:1006120024047016D2A922C2A922758A67758CFC9D
:0B06220022D28C22C28C2243890122CC
:0A075C00BF0103D38001C392AF2256
:100497008B5D8A5E895FAF4A054A7E0012058C1222
:1004A700054AEF2408FFE43EFE7C007D0812004B5E
:1004B700AB5DAA5EA95FED12002712054AEF24087B
:1004C700FFE43EFE7C007D0812004BAB60AA61A9E9
:1004D70062ED120027AB60AA61A96212000EFFABA2
:1004E7005DAA5EA95F12000E75F008A424082FF814
:0404F700E670AC22DD
:1006EE007560007561007562547B007A0079521254
:1006FE000497E55275F008A424082554F8761322C1
:030006008F4F22F7
:10059700E54F24F1601324F1601824E2601D240F55
:1005A7007028E54B701EF54F22E54BB41E028010F4
:1005B7008012E54BB42D0280078009E54BB40F0488
:0B05C700E4F54F22E54F24F1F54B2234
:10062D00E55075F008A424082553F8E6FF643E60F4
:10063D0013EF6420600EEF642F6009EF6411600406
:0A064D00EFB407037F01227F0022B3
:10028000E54D6003020312E54B602B24E260652418
:10029000F16042241E707BE55024075407F550128C
:1002A000062DEF6003754D01E55075F008A4240894
:1002B0002553F8763E22E55324095407F5531206D8
:1002C0002DEF6003754D01E55075F008A424082555
:1002D00053F8762F22E55024095407F55012062DC5
:1002E000EF6003754D01E55075F008A4240825530F
:1002F000F8762022E55324075407F55312062DEF14
:100300006003754D01E55075F008A424082553F8E5
:0303100076112241
:10039F00E4F55CF55BF55AF559E47F07FEFDFCAB20
:1003AF005CAA5BA95AA859D3120081505FE4F5608B
:1003BF00F55FF55EF55DE47F07FEFDFCAB60AA5FC0
:1003CF00A95EA85DD31200815027E55C75F008A4E3
:1003DF0024082560F8E4F6FAF9F8E5602401F560E1
:1003EF00EA355FF55FE9355EF55EE8355DF55D8011
:1003FF00C5E4FAF9F8E55C2401F55CEA355BF55BD9
:0C040F00E9355AF55AE83559F559808D49
:01041B0022BE
:1001190085505985535AE54D60030201CEE552B524
:100129005009E554B553047F0180027F00EF600355
:100139000206EE790185595B855A5CE55975F00827
:10014900A42408255AF8E624E0601C24F1600E2452
:10015900F1601A242D701EE55A24098004E55A24F9
:10016900075407F55A800EE55924078004E55924F8
:10017900095407F559E55975F008A42408255AF8D2
:10018900E6FF64076005EF64037031E4F6E55BB5EB
:100199005009E55CB553047F0180027F00EF600ED2
:1001A900E55B75F008A42408255CF8760322E55B75
:1001B90075F008A42408255CF876072209E964414A
:0501C900600302013E8D
:0101CE00220E
:1005D20012039F7560007561007562537B007A009B
:1005E2007950120497E55075F008A424082553F8B1
:1005F20076031206EE754B2DE4F54FF54DF54C22C0
:09076600AF49AE48E4F548F5493D
:01076F002267
:1006C900E4F555F556F548F549F54E7F0112075CF5
:1006D90012073E1206027F041206027F0212060268
:0506E9007F050206027E
:03000B0002070EDB
:10070E00C0E0C0D075D000C0077F05120602E551CB
:0E071E00C3944350020551D007D0D0D0E03232
:030003000201CF28
:1001CF00C0E0C0F0C083C082C0D075D000C000C0F6
:0B01DF0002C003C004C005C006C0073A
:1001EA00E4FCAD517F05120602755100054EC3EDC0
:1001FA009443EC9400400B754EFE755500755600FD
:10020A00805BD3E54E6480F8748098502DE54E6487
:10021A0080949F5025C3ED9402EC9400403F741FD4
:10022A00954EFF7E007401A807088005C333CE33BC
:10023A00CED8F94256EE42558023C3E54E648094E7
:10024A00A0401A855548855649755500755600755A
:0D025A004E00C2A07F017E001206A4D2A0BB
:10026700D007D006D005D004D003D002D000D0D01C
:09027700D082D083D0F0D0E03237
:10067E00C2B6C2B5E4FEEFC4131313540124FF92A5
:10068E00B4EF25E0FFD2B60000C2B60EBE08E7D228
:05069E00B50000C2B52B
:0106A3002234
:10041C00E4F55BF55CE4F559F55AE4FDFF12067E54
:10042C00E4FBFAAE5AEE75F008A424082BF8E6604B
:10043C0021AF03A8077401088002C333D8FCFF2D39
:10044C00FDA8067401088002C333D8FCF4F58012B1
:10045C00067E0BBB00010AEB64084A70C67F017E66
:10046C00001206A4055AE55A70020559D39407E503
:10047C00596480948040A3055CE55C7002055BD3F5
:0A048C009464E55B64809480408B6B
:010496002243
:1004FB001205D21206C9E54D704012041C12076694
:10050B00EF8EF0120097052D10EF052918E7052542
:10051B0038C705315AA5000005367F2D800A7F0F9D
:10052B0080067F3C80027F1E120006E54C70C712CE
:0F053B00059712028012011980BC12041C80FB6C
:03000000020313E5
:0C031300787FE4F6D8FD75816602035A7D
:10000E00BB010689828A83E0225002E722BBFE02F0
:09001E00E32289828A83E4932223
:10002700BB010689828A83F0225002F722BBFE01B8
:02003700F322B2
:10003900EF8DF0A4A8F0CF8CF0A428CE8DF0A42EDB
:02004900FE2295
:10004B00C2D5EC30E709B2D5E4C39DFDE49CFCEED0
:10005B0030E715B2D5E4C39FFFE49EFE1200C4C384
:10006B00E49DFDE49CFC80031200C430D507C3E47F
:06007B009FFFE49EFE223F
:10008100EB9FF5F0EA9E42F0E99D42F0EC6480C8F6
:0600910064809845F02296
:10009700D083D082F8E4937012740193700DA3A3F8
:1000A70093F8740193F5828883E473740293B5F02F
:0D00B700067403936860E9A3A3A3A380D897
:10054A00AC63AD64AE65AF667810EC4D4E4F700487
:10055A007CA57DA5C3EC13FCED13FDEE13FEEF1392
:10056A00FF5010EC64CCFCED644CFDEE644EFEEFE3
:10057A0064CEFFD8DF8C638D648E658F66EE547F00
:0D058A00FE228E638F6474A5F565F5662270
:10031F000204FBE493A3F8E493A34003F68001F2F5
:10032F0008DFF48029E493A3F85407240CC8C333DF
:10033F00C4540F4420C8834004F456800146F6DFAE
:10034F00E4800B0102040810204080900657E47EE1
:10035F00019360BCA3FF543F30E509541FFEE493A3
:10036F00A360010ECF54C025E060A840B8E493A36A
:10037F00FAE493A3F8E493A3C8C582C8CAC583CA95
:10038F00F0A3C8C582C8CAC583CADFE9DEE780BE4D
:01067D00007C
:1000C400BC000BBE0029EF8DF084FFADF022E4CC20
:1000D400F875F008EF2FFFEE33FEEC33FCEE9DECE9
:1000E400984005FCEE9DFE0FD5F0E9E4CEFD22ED2F
:1000F400F8F5F0EE8420D21CFEADF075F008EF2F79
:10010400FFED33FD4007985006D5F0F222C398FD69
:050114000FD5F0EA2206
:00000001FF
