:1006CB00014C00014E00014B00014F000152000193
:1006DB005100015300024800000254000001500079
:0306EB00014D00BE
:10072D00E4FDFCC3ED9FEC9E50070DBD00010C8058
:01073D00F2C9
:01073E002298
:04068100AB07AA0613
:10068500E4F55CF55DF583F5827C007D0CAF03AE8A
:1006950002120039C3E5829FE5839E5003A380E9DA
:0106A5002232
:0F073F00BF0104D2A8D288EF7004C2A8C28822DA
:0F074E00BF0104D28AD2AAEF7004C28AC2AA22C3
:10060600EF601424FE601A14601A14601A14600A4B
:1006160024047016D2A922C2A922758A67758CFC99
:0B06260022D28C22C28C2243890122C8
:0A075D00BF0103D38001C392AF2255
:100497008B5C8A5D895EAF4A054A7E0012053D1274
:1004A70004FBEF2408FFE43EFE7C007D0812004BAE
:1004B700AB5CAA5DA95EED1200271204FBEF2408CE
:1004C700FFE43EFE7C007D0812004BAB5FAA60A9EB
:1004D70061ED120027AB5FAA60A96112000EFFABA6
:1004E7005CAA5DA95E12000E75F008A424082FF817
:0404F700E670AC22DD
:1006EF00755F007560007561537B007A0079511258
:1006FF000497E55175F008A424082553F8761322C2
:030006008F4E22F8
:1005CB00E54E24F1601324F1601824E2601D240F22
:1005DB007028E54B701EF54E22E54BB41E028010C1
:1005EB008012E54BB42D0280078009E54BB40F0454
:0B05FB00E4F54E22E54E24F1F54B2202
:10063100E54F75F008A424082552F8E6FF643E60F2
:1006410013EF6420600EEF642F6009EF6411600402
:0A065100EFB407037F01227F0022AF
:10028000E54C6003020312E54B602B24E260652419
:10029000F16042241E707BE54F24075407F54F128E
:1002A0000631EF6003754C01E54F75F008A4240892
:1002B0002552F8763E22E55224095407F5521206DB
:1002C00031EF6003754C01E54F75F008A424082553
:1002D00052F8762F22E54F24095407F54F120631C4
:1002E000EF6003754C01E54F75F008A42408255212
:1002F000F8762022E55224075407F552120631EF12
:100300006003754C01E54F75F008A424082552F8E8
:0303100076112241
:10039F00E4F55BF55AF559F558E47F07FEFDFCAB24
:1003AF005BAA5AA959A858D3120081505FE4F55F90
:1003BF00F55EF55DF55CE47F07FEFDFCAB5FAA5EC5
:1003CF00A95DA85CD31200815027E55B75F008A4E6
:1003DF002408255FF8E4F6FAF9F8E55F2401F55FE4
:1003EF00EA355EF55EE9355DF55DE8355CF55C8017
:1003FF00C5E4FAF9F8E55B2401F55BEA355AF55ADD
:0C040F00E93559F559E83558F558808D4D
:01041B0022BE
:10011900854F58855259E54C60030201CEE551B52A
:100129004F09E553B552047F0180027F00EF600358
:100139000206EF790185585A85595BE55875F0082B
:10014900A424082559F8E624E0601C24F1600E2453
:10015900F1601A242D701EE55924098004E55924FB
:10016900075407F559800EE55824078004E55824FB
:10017900095407F558E55875F008A424082559F8D5
:10018900E6FF64076005EF64037031E4F6E55AB5EC
:100199004F09E55BB552047F0180027F00EF600ED5
:1001A900E55A75F008A42408255BF8760322E55A78
:1001B90075F008A42408255BF876072209E964414B
:0501C900600302013E8D
:0101CE00220E
:10058F0012039F755F007560007561527B007A00E2
:10059F00794F120497E54F75F008A424082552F8F7
:1005AF0076031206EF1204FB7C007D0312004BED65
:0C05BF0075F05AA4F54BE4F54EF54C2203
:09076700AF49AE48E4F548F5493C
:010770002266
:1006A600E4F554F555F548F549F54D7F0112075D1A
:1006B60012073F1206067F041206067F021206067E
:0506C6007F050206069D
:03000B0002070FDA
:10070F00C0E0C0D075D000C0077F05120606E550C7
:0E071F00C3944350020550D007D0D0D0E03232
:030003000201CF28
:1001CF00C0E0C0F0C083C082C0D075D000C000C0F6
:0B01DF0002C003C004C005C006C0073A
:1001EA00E4FCAD507F05120606755000054DC3EDBF
:1001FA009443EC9400400B754DFE75540075550000
:10020A00805BD3E54D6480F8748098502DE54D6489
:10021A0080949F5025C3ED9402EC9400403F741FD4
:10022A00954DFF7E007401A807088005C333CE33BD
:10023A00CED8F94255EE42548023C3E54D648094EA
:10024A00A0401A855448855549755400755500755E
:0D025A004D00C2A07F017E00120681D2A0DF
:10026700D007D006D005D004D003D002D000D0D01C
:09027700D082D083D0F0D0E03237
:10065B00C2B6C2B5E4FEEFC4131313540124FF92C8
:10066B00B4EF25E0FFD2B60000C2B60EBE08E7D24B
:05067B00B50000C2B54E
:010680002257
:10041C00E4F55AF55BE4F558F559E4FDFF12065B7B
:10042C00E4FBFAAE59EE75F008A424082BF8E6604C
:10043C0021AF03A8077401088002C333D8FCFF2D39
:10044C00FDA8067401088002C333D8FCF4F58012B1
:10045C00065B0BBB00010AEB64084A70C67F017E89
:10046C00001206810559E55970020558D39407E529
:10047C00586480948040A3055BE55B7002055AD3F9
:0A048C009464E55A64809480408B6C
:010496002243
:1005480012058F1206A6E54C703C12041C120767B0
:10055800EF8EF0120097057A10EF057618E705720E
:1005680038C7057E5AA5000005837F2D800A7F0FB6
:1005780080067F3C80027F1E1200061205CB120205
:060588008012011980C081
:01058E00224A
:03000000020313E5
:0C031300787FE4F6D8FD75816502035A7E
:10000E00BB010689828A83E0225002E722BBFE02F0
:09001E00E32289828A83E4932223
:10002700BB010689828A83F0225002F722BBFE01B8
:02003700F322B2
:10003900EF8DF0A4A8F0CF8CF0A428CE8DF0A42EDB
:02004900FE2295
:10004B00C2D5EC30E709B2D5E4C39DFDE49CFCEED0
:10005B0030E715B2D5E4C39FFFE49EFE1200C4C384
:10006B00E49DFDE49CFC80031200C430D507C3E47F
:06007B009FFFE49EFE223F
:10008100EB9FF5F0EA9E42F0E99D42F0EC6480C8F6
:0600910064809845F02296
:10009700D083D082F8E4937012740193700DA3A3F8
:1000A70093F8740193F5828883E473740293B5F02F
:0D00B700067403936860E9A3A3A3A380D897
:1004FB00AC62AD63AE64AF657810EC4D4E4F7004DB
:10050B007CA57DA5C3EC13FCED13FDEE13FEEF13E1
:10051B00FF5010EC64CCFCED644CFDEE644EFEEF32
:10052B0064CEFFD8DF8C628D638E648F65EE547F53
:0D053B00FE228E628F6374A5F564F56522C3
:10031F00020548E493A3F8E493A34003F68001F2A7
:10032F0008DFF48029E493A3F85407240CC8C333DF
:10033F00C4540F4420C8834004F456800146F6DFAE
:10034F00E4800B01020408102040809006CBE47E6D
:10035F00019360BCA3FF543F30E509541FFEE493A3
:10036F00A360010ECF54C025E060A840B8E493A36A
:10037F00FAE493A3F8E493A3C8C582C8CAC583CA95
:10038F00F0A3C8C582C8CAC583CADFE9DEE780BE4D
:0106EE00000B
:1000C400BC000BBE0029EF8DF084FFADF022E4CC20
:1000D400F875F008EF2FFFEE33FEEC33FCEE9DECE9
:1000E400984005FCEE9DFE0FD5F0E9E4CEFD22ED2F
:1000F400F8F5F0EE8420D21CFEADF075F008EF2F79
:10010400FFED33FD4007985006D5F0F222C398FD69
:050114000FD5F0EA2206
:00000001FF
