:1007B3001C24003F0006005B004F0066006D007DB7
:1007C3000007007F006F0000000100400008020ADC
:1007D300000E0208001802200001021E0001021C84
:0E07E3000000020C0001024000010222000092
:1008B0008E088F09E5097803C333CE33CED8F9FD0E
:0E08C000AC067E007F011204D28E0A8F0B223E
:10074D00EE705FEF14B40800505890076575F00314
:10075D00A4C58325F0C5837302077D0207810207B7
:10076D008702078D02079602079A0207A00207A6C5
:10077D00C2A28002D2A2C2A3800AC2A2D2A38004C6
:10078D00D2A2D2A3C2A48D8022C2A28002D2A2C2C2
:10079D00A3800AC2A2D2A38004D2A2D2A3D2A48DD6
:0607AD008022E4F5802229
:0E08CE00ED25E02424F8E6FC08E6FD02074DC7
:100828001392B4D2B6AF21AE2012083AC2B6AF21A5
:02083800AE20F0
:04083A00AB07AA0658
:10083E00E4F583F5827C007D0CAF03AE021204C09A
:0C084E00C3E5829FE5839E5003A380E970
:01085A00227B
:04058C00AD07AC0605
:10059000E4FBFAFEED54017807C333CE33CED8F92D
:1005A0002BFBEE3AFAECC313FCED13FD7E00540175
:1005B0007806C333CE33CED8F92BFBEE3AFAECC330
:1005C00013FCED13FD7E0054017805C333CE33CE0A
:1005D000D8F92BFBEE3AFAECC313FCED13FD5401F2
:1005E000C4F8540FC868FFE4C454F048FEEF2BFB76
:1005F000EE3AFAECC313FCED13FD7E0054017803D0
:10060000C333CE33CED8F92BFBEE3AFAECC313FC4E
:10061000ED13FD7E0054017802C333CE33CED8F9FA
:100620002BFBEE3AFAECC313FCED13FD540125E06D
:10063000FFE433FEEF2BFBEE3AFAECC313ED135459
:0A064000012BFBE43AFAAE02AF030F
:01064A00228D
:0706D7002BFDEE3AFC7E0052
:0806DE008E478F488C498D4ABC
:1006E600E4F54BF54CAF1FAE1E12083AC2B5120820
:1006F60034D2B5120836754B00754C01E548120820
:1007060028E547C313F547E54813F548054CE54C7E
:100716007002054BD39408E54B940040DF754B00FF
:10072600754C01E54A120828E549C313F549E54A1F
:1007360013F54A054CE54C7002054BD39408E54B7E
:06074600940040DFC2B583
:01074C00228A
:0403E0008E558F5651
:1003E400755900755AFFE4F55BF55CAF1FAE1E123C
:1003F400083AC2B5120834D2B512083675570075DA
:100404005801E556120828E555C313F555E556136A
:10041400F5560558E55870020557D39407E55794E7
:100424000040DFE5561392B4D2B6755700755801F3
:10043400120836C2B6AF1DAE1C12083AA2B4E43399
:10044400755B00F55CE55A25E0FFEF54FEFFE55CC3
:100454005401FDE4F559EF4DF55AC3E521951DFF0F
:10046400E520951CFE12083AD2B60558E5587002EC
:100474000557D39407E557940040B5120836C2B621
:10048400AF1DAE1C12083AA2B4E433755B00F55CF0
:10049400E55A25E0FFEF54FEFFE55C5401FDE4F569
:1004A40059EF4DF55AC3E521951DFFE520951CFE36
:0C04B40012083AC2B5AF5AAE5902058CCE
:0708F200C2B4C2B6C2B52278
:060006008B488A49894A7B
:10000C007F817E001203E08E4F8F50E5505470FFBD
:10001C00E4C4F854F0C868FEEFC4540F48FF7C00E9
:10002C007D0A1204C08E4B8F4C754D00E550540F59
:10003C00F54E254CFFE54D354BAB48AA49A94A90E6
:10004C00000C8FF012055F7F837E001203E08E4F51
:10005C008F50E5505470FFE4C4F854F0C868FEEFBC
:10006C00C4540F48FF7C007D0A1204C08E4B8F4C89
:10007C00754D00E550540FF54E254CFFE54B354DB5
:10008C00AB48AA49A94A90000A8FF012055F7F85F8
:10009C007E001203E08E4F8F50E550548064017047
:1000AC004FE5505410FFE4C4F854F0C868FEEFC498
:1000BC00540F48FF7C007D0A1204C08E4B8F4C7588
:1000CC004D00E550540FF54E7E00E5505420780558
:1000DC00CEC313CE13D8F9FFE54C254EFBE54B35BB
:1000EC004DFA7C007D0C1204C0EF2BFFEE3A802EF3
:1000FC00E5505430FFE4C4F854F0C868FEEFC45423
:10010C000F48FF7C007D0A1204C08E518F5275532C
:10011C0000E550540FF5542552FFE5513553AB48CB
:0C012C00AA49A94A9000088FF012055F54
:100138007F877E001203E08E4F8F50E5505430FFCA
:10014800E4C4F854F0C868FEEFC4540F48FF7C00BC
:100158007D0A1204C08E4B8F4C754D00E550540F2C
:10016800F54E254CFFE54B354DAB48AA49A94A90B9
:1001780000028FF012055F7F897E001203E08E4F28
:100188008F50E5505410FFE4C4F854F0C868FEEFEF
:10019800C4540F48FF7C007D0A1204C08E4B8F4C5C
:1001A800754D00E550540FF54E254CFFE54B354D88
:1001B800AB48AA49A94A9000048FF012055F7F87CF
:1001C8007E001203E08E4F8F50E55054F0FFE4C4D8
:1001D800F854F0C868FEEFC4540F48FF7C007D0A4D
:1001E8001204C08E4B8F4C754D00E550540FF54EE0
:1001F800254CFFE54B354DAB48AA49A94A90000666
:050208008FF002055F0C
:06020D008B428A43894484
:10021300E4F545F546FCAB42AA4390000C120527D2
:10022300FFAEF07D0A1204D27C007D0A1204D28C48
:10023300458D4690000C120527FFAEF07C007D0A29
:100243001204D2AA04AB05E546C4F8540FC868FFEC
:10025300E545C454F048FEEF7F801206D7AB42AAAF
:1002630043A94490000A120527FFAEF07C007D0AE3
:100273001204D27C007D0A1204D28C458D46900074
:100283000A120527FFAEF07C007D0A1204D2AA04ED
:10029300AB05E546C4F8540FC868FFE545C454F000
:1002A30048FEEF7F821206D7AB42AA43A9449000CF
:1002B30008120527FFAEF07C007D0A1204D27C00F1
:1002C3007D0A1204D28C458D46900008120527FF43
:1002D300AEF07C007D0A1204D2E546C4F8540FC880
:1002E30068FFE545C454F048FEEF2DFDEE3CFC7F6E
:0602F300847E000206DE1D
:0E08DC001208F27D5A7C007F907E000206DE3C
:09085B007E001208CEAF43AE424C
:04086400AB07AA062E
:100868009000007C007D0CAF03AE021204C0C3E50B
:10087800829FE5839E5009E52345227003A380E308
:01088800224D
:1002F90075420075430375440075453CE4F546F5C0
:1003090047FDFC7F01FE12074D7F2C0E1208647B0E
:10031900007A00790E120006754600754701D3E58B
:10032900479545E546954440030203DFAE16AF17EE
:100339007C007D0A1204D27C007D0A1204D27F0857
:1003490012085BAE16AF177C007D0A1204D27F0734
:1003590012085BAE18AF197C007D0A1204D27C002A
:100369007D0A1204D27F0612085BAE18AF197C0011
:100379007D0A1204D27F0512085BAE12AF137C000E
:100389007D0A1204D27C007D0A1204D27F0412086D
:100399005BAE12AF137C007D0A1204D27F031208F0
:1003A9005BAE14AF157C007D0A1204D27C007D0A75
:1003B9001204D27F0212085BAE14AF157C007D0ACD
:1003C9001204D27F0112085B0547E5476003020367
:0603D90027054602032780
:0103DF0022FB
:1007F200D2AFD2A8D2881208DC751A00751B037515
:100802001800751902751600751711E4FDFC7F8E2C
:10081200FE1206DE7B007A00790E12020DE4FDFC68
:060822007F8EFE0206DEDF
:0300030002088967
:10088900C0E0C0D075D000C006C007E50D450C70AA
:1008990005FE7F0180047E007F008E0C8F0DD0073E
:0708A900D006D0D0D0E032F0
:0808EA001207F21202F980FB73
:0300000002064BAA
:0C064B00787FE4F6D8FD75815C02069211
:1004C000EF8DF0A4A8F0CF8CF0A428CE8DF0A42E50
:0204D000FE220A
:1004D200BC000BBE0029EF8DF084FFADF022E4CC0E
:1004E200F875F008EF2FFFEE33FEEC33FCEE9DECD7
:1004F200984005FCEE9DFE0FD5F0E9E4CEFD22ED1D
:10050200F8F5F0EE8420D21CFEADF075F008EF2F66
:10051200FFED33FD4007985006D5F0F222C398FD57
:050522000FD5F0EA22F4
:10052700BB0110E58229F582E5833AF583E0F5F012
:10053700A3E0225009E92582F886F008E622BBFEEF
:100547000AE92582F8E2F5F008E222E5832AF58335
:08055700E993F5F0A3E99322FA
:10055F00F8BB0111E58229F582E5833AF583E8F0CE
:10056F00E5F0A3F0225009E92582C8F608A6F0228B
:0D057F00BBFE09E92582C8F2E5F008F22272
:100657000208EAE493A3F8E493A34003F68001F2C7
:1006670008DFF48029E493A3F85407240CC8C333A4
:10067700C4540F4420C8834004F456800146F6DF73
:10068700E4800B01020408102040809007B3E47E49
:10069700019360BCA3FF543F30E509541FFEE49368
:1006A700A360010ECF54C025E060A840B8E493A32F
:1006B700FAE493A3F8E493A3C8C582C8CAC583CA5A
:1006C700F0A3C8C582C8CAC583CADFE9DEE780BE12
:0107F1000007
:00000001FF
