:10064400011D010114010113000E1F3F065B4F66DB
:100654006D7D077F6F000140080815000000000051
:10066400000000010905010818011200010A010136
:050674002D01011E0034
:1006DC00EB1392B4D2B6AF1D7E001206EDC2B6AFCC
:0106EC001DF0
:1006ED00E4FDFCC3ED9FEC9E50070DBD00010C8099
:0106FD00F20A
:0106FE0022D9
:0406FF00AB07AA0695
:10070300E4F583F5827C047DB0AF03AE0212027977
:0C071300C3E5829FE5839E5003A380E9AC
:01071F0022B7
:10041200900001AB2EAA2FA93012022AFF75F00A12
:100422008475F00A84E5F0753300F534EF75F00A4F
:100432008475830085F082E534C4F8540FC868FFE0
:10044200E533C454F048FEEF2582F536E5833EF5E8
:0504520035E4FD7F8E82
:04045700AB05A90741
:10045B00E4FAAF14FE1206EDC2B51206E9D2B5AF3F
:10046B001D1206ED0AE91206DDE9C313F90ABA09F2
:10047B00F47A011206DCEBC313FB0ABA09F5C2B519
:01048B00224E
:02056E00AB07D9
:10057000E4F9F53DAF14FE1206EDC2B51206E9D25C
:10058000B5AF1D1206ED7A011206DCEBC313FB0AB0
:10059000BA08F5EB1392B4D2B6AF1D7E001206ED89
:1005A000E4FAC2B6AF137E001206EDA2B4E433F54E
:1005B0003D5401FFA802088002C333D8FC4201C3A6
:1005C000E51D9513FFE49400FE1206EDD2B6AF1DB3
:0D05D0007E001206ED0ABA08C9C2B5AF01DF
:0105DD0022FB
:07075F00C2B4C2B6C2B5220C
:080006007B007A00790B7C00FD
:0A000E008B2E8A2F89308C318D3241
:10001800E53230E0411204537F8112056E753700D6
:100028008F38E5385470FFE4C4F854F0C868FEEF20
:10003800C4540F48FF7C007D0A1202798E338F3436
:10004800753500E538540FF5362FAB2EAA2FA93099
:10005800900006120257E53230E1421204537F83C2
:1000680012056E7537008F38E5385470FFE4C4F810
:1000780054F0C868FEEFC4540F48FF7C007D0A1294
:1000880002798E338F34753500E538540FF53625EF
:1000980034AB2EAA2FA930900005120257E5322062
:1000A800E20302013B1204537F8512056E75370087
:1000B8008F38E538548064017044E5385410FFE403
:1000C800C4F854F0C868FEEFC4540F48FF7C007DA4
:1000D8000A1202798E338F34753500E538540FF5DE
:1000E800367E00E53854207805CEC313CE13D8F9F0
:0E00F800FFE5342536FDEF75F00CA42D8029B0
:10010600E5385430FFE4C4F854F0C868FEEFC45430
:100116000F48FF7C007D0A1202798E398F3A753BB3
:1001260000E538540FF53C253AAB2EAA2FA930909E
:05013600000412025755
:10013B00E53230E4421204537F8712056E753700A7
:10014B008F38E5385430FFE4C4F854F0C868FEEF3C
:10015B00C4540F48FF7C007D0A1202798E338F3412
:10016B00753500E538540FF5362534AB2EAA2FA97B
:10017B0030900001120257E53230E5421204537FF2
:10018B008912056E7537008F38E5385410FFE4C4BB
:10019B00F854F0C868FEEFC4540F48FF7C007D0A8A
:1001AB001202798E338F34753500E538540FF536DE
:1001BB002534AB2EAA2FA930900002120257E5323C
:1001CB0030E6421204537F8712056E7537008F3865
:1001DB00E53854F0FFE4C4F854F0C868FEEFC4549B
:1001EB000F48FF7C007D0A1202798E338F347535F0
:1001FB0000E538540FF5362534AB2EAA2FA93090D5
:05020B00000312025780
:0102100022CB
:0A02E0008B2E8A2F89308C318D326D
:1002EA00E4F533F534F582F583F535F536E5323044
:1002FA00E00D90000612041BAD367F80120457E50C
:10030A003230E10D900005120415AD367F821204D9
:10031A0057E53230E213AB2EAA2FA930900004120F
:10032A00041BAD367F84120457E53230E30A120407
:10033A0012AD367F86120457E53230E413AB2EAA8B
:10034A002FA93090000212041BAD367F8812045781
:10035A00E53230E50A120412AD367F9C120457E5E5
:10036A003230E617AB2EAA2FA93012021175F00A05
:0B037A0084120453ADF07F9A12045768
:010385002255
:0307660002075F28
:100720008F08EF75F008A4FFAEF07C037DE8CFCD15
:0A073000CFCECCCE12028B8F09222F
:1005DE00EE705FEF14B4080050589005F675F003F6
:1005EE00A4C58325F0C5837302060E020612020609
:1005FE001802061E02062702062B020631020637D5
:10060E00C2A28002D2A2C2A3800AC2A2D2A3800436
:10061E00D2A2D2A3C2A48D8022C2A28002D2A2C232
:10062E00A3800AC2A2D2A38004D2A2D2A3D2A48D46
:06063E008022E4F5802299
:10067A00E4FBFAEB2401FFE43AFE74152BF8E6FDDD
:10068A007C001205DEE4FEFF0FBF00010EEF649648
:10069A004E70F50BBB00010AEB64084A70D5E4F50D
:0106AA0080CF
:0106AB00222C
:10048C007D07120006E50F75F00A8475F00A847476
:10049C001F25F0F8E6F51CE50F75F00A84741F258E
:1004AC00F0F8E6F51B751A40E51075F00A8475F046
:1004BC000A84741F25F0F8E6F519E51075F00A8426
:1004CC00741F25F0F8E6F518751740E51175F00A5C
:1004DC008475F00A84741F25F0F8E6F516E511759D
:1004EC00F00A84741F25F0F8E6F515751201020662
:0104FC007A85
:1004FD007D38120006E50E75F00A8475F00A8474D5
:10050D001F25F0F8E6F51CE50E75F00A84741F251D
:10051D00F0F8E6F51B751A40E50D75F00A8475F0D7
:10052D000A84741F25F0F8E6F519E50D75F00A84B7
:10053D00741F25F0F8E6F518751740E50C75F00AEF
:10054D008475F00A84741F25F0F8E6F516E50C7530
:10055D00F00A84741F25F0F8E6F5157512010206F0
:01056D007A13
:0E074900E50A600614700602048C1204FD22FC
:1006AC00D2AFD2A8D288120766E4F51175101E7568
:1006BC000F09750B01750C01750D09750E18FB7A78
:1006CC0000790B7D7FFC1202E07F307E0002072058
:0300030002073AB7
:0F073A00C0E0E50A045401F50A751200D0E03260
:080757001206AC12074980FBF9
:0300000002038672
:0C038600787FE4F6D8FD75813D0203CDC0
:10021100BB010689828A83E0225002E722BBFE02EB
:09022100E32289828A83E493221E
:10022A00BB010CE58229F582E5833AF583E0225089
:10023A0006E92582F8E622BBFE06E92582F8E222D3
:0D024A00E58229F582E5833AF583E49322ED
:10025700F8BB010DE58229F582E5833AF583E8F0DD
:10026700225006E92582C8F622BBFE05E92582C889
:02027700F22271
:10027900EF8DF0A4A8F0CF8CF0A428CE8DF0A42E99
:02028900FE2253
:10028B00BC000BBE0029EF8DF084FFADF022E4CC57
:10029B00F875F008EF2FFFEE33FEEC33FCEE9DEC20
:1002AB00984005FCEE9DFE0FD5F0E9E4CEFD22ED66
:1002BB00F8F5F0EE8420D21CFEADF075F008EF2FB0
:1002CB00FFED33FD4007985006D5F0F222C398FDA1
:0502DB000FD5F0EA223E
:10039200020757E493A3F8E493A34003F68001F223
:1003A20008DFF48029E493A3F85407240CC8C3336C
:1003B200C4540F4420C8834004F456800146F6DF3B
:1003C200E4800B0102040810204080900644E47E81
:1003D200019360BCA3FF543F30E509541FFEE49330
:1003E200A360010ECF54C025E060A840B8E493A3F7
:1003F200FAE493A3F8E493A3C8C582C8CAC583CA22
:10040200F0A3C8C582C8CAC583CADFE9DEE780BED9
:010679000080
:00000001FF
