:1009FD00534156453F205B597C4E5D002E2E2E00F7
:100A0D005B434F4E54524F4C2043454E5445525D1F
:100A1D00004552524F5221005B48656C6C6F215D51
:100A2D000046726F6D204E4758584655532100763B
:100A3D002E302E312E340053595354454D205354DE
:100A4D0041525455502E2E2E0048656C6C6F21006E
:100A5D00523A200A0048656C6C6F212046726F6D0A
:0F0A6D00202A2A2A4E4758584655532A2A2A002B
:1009760042000000004201620000410141004101C5
:10098600400041013F0041013E0041013D0042005F
:100996001E00004100020641000306410006064112
:1009A6000007064100080642000400004701210036
:1009B6000000000D0F234701280000000000000082
:1009C6004700090000000000000047012F0000005A
:1009D6000000000047001000000000000000470172
:1009E600360000000000000047001700000000006D
:0609F60000004101200099
:0D0F2D00EB1392B4D2B690013FE0FF7E00BE
:100F3A00E4FDFCC3ED9FEC9E50070DBD00010C8043
:010F4A00F2B4
:010F4B002283
:040E13007FE87E03F3
:080E170090017EEEF0A3EFF064
:100E1F00E4FBFAA3F0A3F090017EE0FEA3E0FF7CD9
:100E2F00007D0C120184C3EB9FEA9E50070BBB00A1
:040E3F00010A80E341
:010E4300228C
:100FFF00EFB40104D2A8D288EF7004C2A8C288222D
:10100F00EFB40104D28AD2AAEF7004C28AC2AA2214
:100E4400EF601424FE601A14601A14601A14600A05
:100E540024047016D2A922C2A922758A67758CFC53
:0B0E640022D28C22C28C224389012282
:0B104B00EFB40103D38001C392AF2279
:0C103F00D2A77F037E00120F3AC2A72246
:091061008F80C2A6C2A502103F57
:09106A008F80D2A6C2A502103F3E
:100C800090018DEBF0A3EAF0A3E9F0A3ECF0A3ED63
:010C9000F073
:100C9100E4A3F0A3F0900190E0FEA3E0FFA3E0FC49
:100CA100A3E0FDC39FEC9E502690018DE0FBA3E0E5
:100CB100FAA3E0F98D828C83120135FF12106A903C
:0F0CC1000193E004F070CE900192E004F080C641
:010CD0002201
:100EC300AB05AA048F828E83E58245837007EB24EA
:100ED30080FF121061AE83AF82EF64014E7007EBA7
:070EE30024C0FF1210612280
:0E03D800900184EBF0A3EAF0A3E9F0A3EDF0AE
:1003E600E490018CF0900189E0B401057F011210C0
:1003F60061900188E0640160030204A7900187E030
:1004060024FFFFE434FFFE90018BE0FD7A002FFF0E
:10041600EA3EFED3EF940FEE64809480501F900165
:100426008AE0FF7E007C00120EC3900184E0FBA3ED
:10043600E0FAA3E0F9A3E0FD7C000204F390018B4F
:10044600E0FFC374109FA3F090018AE0FF7E00E4F2
:10045600FDFC120EC3900184E0FBA3E0FAA3E0F9D1
:1004660090018CE0FD7C00120C8090018AE0600314
:100476000204F6FDFC7F01FE120EC3900184E0FB30
:10048600A3E0FAA3E0F990018CE0FFFD7C00E92DE2
:10049600F9EC3AFA900187E0C39FFDEC9400FC80EA
:1004A6004C90018AE0FF7E00A3E0FD7C00120EC3A3
:1004B600900184E0FBA3E0FAA3E0F990018BE0FF52
:1004C600C374109FFFE49400FE900187E0FDC3EF24
:1004D6009D7480F86E98500C90018BE0FFC37410E9
:1004E6009FFF8005900187E0FFEFFD7C00120C80E6
:0104F60022E3
:100FA100E4900188F0A3F0900182E090018AF09032
:0A0FB1000183E090018BF00203D8E9
:100F8600E4900188F0A304F0900182E090018AF0D9
:0B0F9600900183E090018BF00203D873
:100F4C007F0C1210617F147E00120F3A7F38121042
:0D0F5C00617F147E00120F3A7F01021061C8
:0F101F00900000E0FEA3E0FFE4900000F0A3F0DB
:01102E00229F
:100E6F00E4900162F0A3F0900000F0A3F090014035
:100E7F00F07F0112104B120FFF120E447F04120E5F
:0B0E8F00447F02120E447F05020E4457
:03000B00020E9A48
:100E9A00C0E0C083C082C0D075D000C0077F0512F1
:100EAA000E44900141E0C394435003E004F0D0079C
:090EBA00D0D0D082D083D0E03208
:030003000207A948
:1007A900C0E0C083C082C0D075D000C000C004C002
:0507B90005C006C007A9
:1007BE00E4FC900141E0FD7F05120E44E4F090014F
:1007CE0040E004F0C3ED9443EC9400400C74FEF052
:1007DE00900162E4F0A3F08064900140E0FFD364E6
:1007EE0080F87480985031EF6480949F502AC3ED46
:1007FE009402EC94004046741F9FFF7E007401A883
:10080E0007088005C333CE33CED8F9FF900162E0DE
:10081E004EF0A3E04FF08025900140E0C364809439
:10082E00A0401A900162E0FFA3E0900000CFF0A379
:0D083E00EFF0900162E4F0A3F0900140F0B3
:10084B00D007D006D005D004D000D0D0D082D08332
:03085B00D0E032B8
:100AEF00F9120135FF75F00A8475F00A84900168D8
:100AFF00E5F0F0EF75F00A84AFF0A3EFF090016826
:0E0B0F00E0FEC454F02F90016AF0E4FD7F8EEA
:040B1D00AB05A90774
:100B2100E4FA90013E120F36D2B5C2B6A3E0FF122D
:100B31000F3A0AE9120F2EC2B6E0FF120F3AE9C3CB
:100B410013F90AEAB409EC7A01120F2DC2B6E0FFDB
:0E0B5100120F3AEBC313FB0AEAB409EDC2B56A
:010B5F002273
:020A7C00AB07C6
:100A7E00E4F99001B4F090013E120F36D2B5C2B631
:100A8E00A3E0FF120F3A7A01120F2DC2B6E0FF1249
:100A9E000F3AEBC313FB0AEAB408ED120F2DE4FA7A
:100AAE00C2B690013D120F36A2B4E4339001B4F0F9
:100ABE00E05401FFA802088002C333D8FC49F99024
:100ACE00013DE0FF90013FE0C39FFFE49400FE1262
:100ADE000F3AD2B6120F360AEAB408C4C2B5AF0145
:010AEE0022E5
:07107B00C2B4C2B6C2B522E7
:0E022E0090019FEBF0A3EAF0A3E9F0A3EDF03E
:10023C0030E036120B197F81120A7C9001A5EFF089
:10024C00E0FF5470C4540F75F00AA4FE9001A3F0A3
:10025C00EF540FA3F02EFF90019FE0FBA3E0FAA355
:10026C00E0F9900006EF1201629001A2E030E13655
:10027C00120B197F83120A7C9001A5EFF0E0FF545A
:10028C0070C4540F75F00AA4FE9001A3F0EF540F44
:10029C00A3F02EFF90019FE0FBA3E0FAA3E0F990FE
:1002AC000005EF1201629001A2E030E267120B1917
:1002BC007F85120A7C9001A5EFF054806401702AAE
:1002CC00E0FF5410C4540F75F00AA4FE9001A3F083
:1002DC00EF540FFFA3F0A3E05420C4135407FDEE1A
:0A02EC002FFFED75F00CA42F801712
:1002F6009001A5E0FF5430C4540F75F00AA4FEA384
:10030600F0EF540FA3F02EFF90019FE0FBA3E0FA5D
:0A031600A3E0F9900004EF12016269
:100320009001A2E030E436120B197F87120A7C900C
:1003300001A5EFF0E0FF5430C4540F75F00AA4FE9D
:100340009001A3F0EF540FA3F02EFF90019FE0FB6C
:10035000A3E0FAA3E0F9900001EF1201629001A27C
:10036000E030E536120B197F89120A7C9001A5EF67
:10037000F0E0FF5410C4540F75F00AA4FE9001A3DE
:10038000F0EF540FA3F02EFF90019FE0FBA3E0FAE3
:10039000A3E0F9900002EF1201629001A2E030E6C2
:1003A00036120B197F87120A7C9001A5EFF0E0FF4F
:1003B00054F0C4540F75F00AA4FE9001A3F0EF545A
:1003C0000FA3F02EFF90019FE0FBA3E0FAA3E0F95A
:0703D000900003EF1201622F
:0103D7002203
:0E04F700900164EBF0A3EAF0A3E9F0A3EDF0AE
:10050500E4A3F0A3F0A3F0ED30E01A900164E0FB62
:10051500A3E0FAA3E0900006120AEF90016AE0FD5D
:100525007F80120B1D900167E030E11A900164E0B5
:10053500FBA3E0FAA3E0900005120AEF90016AE040
:10054500FD7F82120B1D900167E030E21B90016474
:10055500E0FBA3E0FAA3E0F9900004120AF0900191
:100565006AE0FD7F84120B1D900167E030E31B906C
:100575000164E0FBA3E0FAA3E0F9900001120AF0A0
:1005850090016AE0FD7F86120B1D900167E030E463
:100595001B900164E0FBA3E0FAA3E0F990000212CE
:1005A5000AF090016AE0FD7F88120B1D900167E05B
:1005B50030E51B900164E0FBA3E0FAA3E0F99000AD
:1005C50003120AF090016AE0FD7F9C120B1D900159
:1005D50067E030E624900164E0FBA3E0FAA3E0F9CC
:1005E50012011C75F00A84900169E5F0120B189050
:0905F5000169E0FD7F9A120B1D63
:0105FE0022DA
:0310820002107BDE
:0B105600C2B6D2B5D2B4D2B6C2B522E9
:100F6900C2B6E4FEEFC4131313540124FF92B4EF85
:0C0F790025E0FFC2B6D2B60EEEB408E8C8
:010F85002249
:100D6900E49001B0F0A3F0C2B6FDFC9001B1E0251A
:100D7900E0F09001B0E033F0D2B6C2B6A2B7E433E6
:100D8900FFE0F0A3E04FF00DBD00010CED640C4C49
:0A0D990070D99001B0E0FEA3E0FF66
:010DA300222D
:10000E00C2B6C2B5120F697F06DFFED2B6C2B612F5
:04001E000D69D2B5E1
:0100220022BB
:081073008F993099FDC299220A
:100F0D007E01EED39D5018EE75830024FFF582E52A
:0F0F1D008334FFF583120135FF1210730E80E34A
:010F2C0022A2
:100FEC007F0112104BD2AC438920758DFD75985042
:030FFC00D28E2270
:03002300020DA427
:100DA400C0E0C0F0C083C082C0D075D000C000C015
:100DB4000690001EE475F0011201EBFE742025F08C
:100DC400F58274003EF583E599F0D006D000D0D0CA
:090DD400D082D083D0F0D0E032CF
:100CD100EF8EF01202010D0F10EF0D0918E70D064E
:100CE10030CF0D1238C70D1842BD0D1B4AB50D1E70
:100CF10052AD0D155AA50D0368970D0C7A850000AC
:100D01000D037F00227F01227F02227F03227F04C5
:100D1100227F05227F06227F07227F08227F092268
:050006007F0102106102
:100C2C00E49001B2F0A3F07BFF7A0979FD90018288
:100C3C00F0A3F07D0B120F8612101F9001B2EEF094
:100C4C00A3EFF08EF01202010C6422DD0C67629DA2
:100C5C000C67A25D00000C6A7F01227F00227BFFE3
:100C6C007A0A79099001827401F0E4A3F07D0312F1
:040C7C000FA180C480
:100EEA007FA412000E7FA412000E7C037DE812017B
:100EFA0096D3ED941EEC940040057E007F0122E417
:030F0A00FEFF22C5
:10102F00EF4E7004FE7F0122EEC313FEEF13FF227B
:100FBB00AB07AA067C007D03120184D3EF942AEEC3
:0A0FCB0094004005AF03AE0222229D
:100B6000EE7062EF24FDB40C00505A900B7975F0D2
:100B700003A4C58325F0C58373020B9D020BA2025B
:100B80000BC5020BC5020BC5020BC5020BB1020B54
:100B9000A7020BAC020BB6020BBB020BC07E007FA0
:100BA00004227E007F03227E007F09227E007F0ACE
:100BB000227E007F0B227E007F0E227E007F0C2291
:060BC0007E007F0D2222E1
:100BC600EE7062EF24FDB40C00505A900BDF75F006
:100BD60003A4C58325F0C58373020C03020C080227
:100BE6000C2B020C2B020C2B020C2B020C0D020CF4
:100BF60012020C17020C1C020C21020C267E007F2E
:100C060004227E007F03227E007F0A227E007F0B65
:100C1600227E007F09227E007F0D227E007F0E222B
:060C26007E007F0C22227B
:0B0D21009001A8EBF0A3EAF0A3E9F0BA
:100D2C009001AFE0FF9001AFE02D14FEEFD39E5089
:100D3C002B9001A8E0FBA3E0FAA3E0F98F82758366
:100D4C0000120135FE9001ACE0FBA3E0FAA3E0F940
:0C0D5C008F82758300EE1201620F80C9C7
:010D68002268
:1005FF00900194EBF0A3EAF0A3E9F090019BE0FFE8
:10060F0075F00A8475F00A84E5F02430FE900194A9
:10061F00E0FBA3E0FAA3E0F990019EE0FDF58275FF
:10062F008300EE120162EF75F00A84E5F02430FFCB
:10063F00EDF582758300A3EF120162EDFF7E00F5E9
:10064F00828E83A3A3743A12016290019CE075F02D
:10065F000A8475F00A84E5F024308F828E83A3A379
:10066F00A312016290019CE075F00A84E5F024303A
:10067F00FF90019EE0FE2404F582E433F583EF1230
:10068F000162EEFF2405F582E433F583743A12011B
:10069F006290019DE075F00A8475F00A84E5F024FC
:1006AF0030FD74062FF582E433F583ED120162906D
:1006BF00019DE075F00A84E5F02430FFA3E02407E4
:0A06CF00F582E433F583EF020162C7
:1006D900EF8EF0120201071302FD070522DD06F76E
:1006E900629D07A8A25D071FC23D0000072E900169
:1006F90020E0FF7E0012102FEFF08029900120E00A
:10070900FF7E00120FBBEFF0801B900120E0FF7EFF
:1007190000120B60800A900120E0FF7E00120BC6D8
:10072900900120EFF0900120E070627BFF7A0A7956
:100739000DE4900182F0A3F07D10120FA190014207
:100749007454F0A37449F0A3744DF0A37445F0A355
:10075900743AF0A37420F078977C017D017B017ACB
:100769000179217E007F071200F690019E7406F040
:100779007B017A0179421205FF7B017A0179429066
:1007890001827401F0E4A3F07D0E020FA17BFF7AD0
:100799000A791EE4900182F0A3F07D06120F8622E9
:10085E0078647C017D017BFF7A0A79627E007F1AC3
:10086E001200F6120F4C7BFF7A0A7925E490018272
:10087E00F0A3F07D08120FA17BFF7A0A792E90016A
:10088E00827401F0E4A3F07D0D120FA1120E13126B
:10089E000E137BFF7A0A790DE4900182F0A3F07DAE
:1008AE0010120F867BFF7A0A793C9001827401F058
:1008BE00E4A3F07D0A120FA1120E13120E137BFF8A
:1008CE007A0A79449001827401F0E4A3F07D11124A
:0C08DE000FA1120E137FE87E03020E171C
:100FD50012085E120E6F120FEC1210827B017A015D
:070FE50079217D070204F7EA
:100DDD00120FD59000207452F0A3743AF0A3742032
:100DED00F090001EE4F0A37403F07FE8FE120E17DE
:100DFD007BFF7A0A79567D07120F0D7A0A795D7D90
:060E0D0005120F0D80FE2E
:030000000208EA09
:0C08EA00787FE4F6D8FD75810702093123
:10002600E709F608DFFA8046E709F208DFFA803EBC
:1000360088828C83E709F0A3DFFA8032E309F608A9
:10004600DFFA8078E309F208DFFA807088828C8311
:10005600E309F0A3DFFA806489828A83E0A3F608C5
:10006600DFFA805889828A83E0A3F208DFFA804C9F
:1000760080D280FA80C680D4806980F28033801076
:1000860080A680EA809A80A880DA80E280CA8033DF
:1000960089828A83ECFAE493A3C8C582C8CCC58357
:1000A600CCF0A3C8C582C8CCC583CCDFE9DEE78027
:1000B6000D89828A83E493A3F608DFF9ECFAA9F0A6
:1000C600EDFB2289828A83ECFAE0A3C8C582C8CCFC
:1000D600C583CCF0A3C8C582C8CCC583CCDFEADE15
:1000E600E880DB89828A83E493A3F208DFF980CC77
:1000F60088F0EF60010E4E60C388F0ED2402B40470
:100106000050B9F582EB2402B4040050AF23234516
:06011600822390007673C5
:10011C00BB010689828A83E0225002E722BBFE02E1
:09012C00E32289828A83E4932214
:10013500BB010CE58229F582E5833AF583E022507F
:1001450006E92582F8E622BBFE06E92582F8E222C9
:0D015500E58229F582E5833AF583E49322E3
:10016200F8BB010DE58229F582E5833AF583E8F0D3
:10017200225006E92582C8F622BBFE05E92582C87F
:02018200F22267
:10018400EF8DF0A4A8F0CF8CF0A428CE8DF0A42E8F
:02019400FE2249
:10019600BC000BBE0029EF8DF084FFADF022E4CC4D
:1001A600F875F008EF2FFFEE33FEEC33FCEE9DEC16
:1001B600984005FCEE9DFE0FD5F0E9E4CEFD22ED5C
:1001C600F8F5F0EE8420D21CFEADF075F008EF2FA6
:1001D600FFED33FD4007985006D5F0F222C398FD97
:0501E6000FD5F0EA2234
:1001EB00A3F8E0C5F025F0F0E582158270021583C7
:0601FB00E0C838F0E82224
:10020100D083D082F8E4937012740193700DA3A38C
:1002110093F8740193F5828883E473740293B5F0C3
:0D022100067403936860E9A3A3A3A380D82B
:1008F600020DDDE493A3F8E493A34003F68001F22E
:1009060008DFF48029E493A3F85407240CC8C33302
:10091600C4540F4420C8834004F456800146F6DFD1
:10092600E4800B0102040810204080900976E47EE2
:10093600019360BCA3FF543F30E509541FFEE493C6
:10094600A360010ECF54C025E060A840B8E493A38D
:10095600FAE493A3F8E493A3C8C582C8CAC583CAB8
:10096600F0A3C8C582C8CAC583CADFE9DEE780BE70
:0109FC0000FA
:00000001FF
