:1003A700020E000102240021020800211410003F60
:1003B7000006005B004F0066006D007D0007004FE0
:0203C700000034
:100311007C007D0A1201277C007D0A120127AE04B0
:09032100AF051203CEAF2DAE2C86
:04032A00AB07AA066D
:10032E009000007C007D0CAF03AE021200C0C3E54E
:0A033E00829FE5839E5003A380E92F
:010348002292
:0C03D90075A805D288D28AD2AFD2B52216
:03000300020349AC
:10034900C0E0C0D075D000C006C007E50F450E70EB
:1003590005FE7F0180047E007F008E0E8F0FE50F62
:100369006401450E7004D2B58002C2B5D007D0062B
:05037900D0D0D0E032FD
:03000B0002037E6F
:10037E00C0E0C0D075D000C006C007E52564214599
:10038E00247005FE7F0C80047E007F218E248F2535
:09039E00D007D006D0D0D0E03227
:0403CA007F0A7E0028
:0B03CE00EF25E02410F808E6F590226F
:04000E008E268F2784
:10001200752C00752D0AE4F52AF52BC3E52B9527DF
:10002200E52A952640030200BFE4F528F529AE2C07
:10003200E52D7802C333CE33CED8F9FDAC067E046B
:100042007FB01200D2C3E5299FE5289E5037C2B681
:10005200C2B7AE0AAF0B120311C2B6D2B7AE0CAF23
:100062000D120311D2B6C2B7AE0AAF0B120318D2E9
:10007200B6D2B7AF0DAE0C1203230529E52970AE37
:100082000528020030D3E50B9400E50A64809480D1
:100092004008E50B150B7002150AD3E50D9400E537
:1000A2000C648094804008E50D150D7002150C0556
:0D00B2002BE52B600302001D052A02001D36
:0100BF00221E
:1002CD00AD07AC06E4F50AF50BF50CF50D7F0AFE4E
:1002DD001203CEEC702DED24F4601F24FA600E2471
:1002ED00F1702075080075092175A021221203CA2D
:1002FD0075080075091275A0122275080075090C94
:04030D0075A00C22A9
:1001E900EE7076EF24F4604824FA602E24F17069E9
:1001F900E509642145086061E50964124508601054
:1002090075A00A750A00750B027F027E0012000EA6
:1002190075A021750800750921221203CA75A0125B
:10022900750800750912E4F50AF50BF50CF50D22B0
:10023900E509640C45086021E50964124508601068
:1002490075A011750C00750D027F027E0012000E5B
:0A02590075A00C75080075090C2251
:100263001203D97F127E001202CD1203CA7FE87EE9
:100273000312032AE50F6401450E70357F21FE1238
:1002830001E9750A00750B07750C00750D057F05EF
:100293007E0012000E7F0C7E001201E9750A0075C4
:1002A3000B05750C00750D077F057E0012000E808F
:1002B300C31203CAE525452460077F211202CD80BE
:0A02C300B37F0C7E001202CD80AA6A
:0300000002015D9D
:0C015D00787FE4F6D8FD75812D0201A426
:1000C000EF8DF0A4A8F0CF8CF0A428CE8DF0A42E54
:0200D000FE220E
:1000D200BC000BBE0029EF8DF084FFADF022E4CC12
:1000E200F875F008EF2FFFEE33FEEC33FCEE9DECDB
:1000F200984005FCEE9DFE0FD5F0E9E4CEFD22ED21
:10010200F8F5F0EE8420D21CFEADF075F008EF2F6A
:10011200FFED33FD4007985006D5F0F222C398FD5B
:050122000FD5F0EA22F8
:10012700C2D5EC30E709B2D5E4C39DFDE49CFCEEF3
:1001370030E715B2D5E4C39FFFE49EFE1200D2C399
:10014700E49DFDE49CFC80031200D230D507C3E494
:060157009FFFE49EFE2262
:10016900020263E493A3F8E493A34003F68001F247
:1001790008DFF48029E493A3F85407240CC8C33397
:10018900C4540F4420C8834004F456800146F6DF66
:10019900E4800B01020408102040809003A7E47E4C
:1001A900019360BCA3FF543F30E509541FFEE4935B
:1001B900A360010ECF54C025E060A840B8E493A322
:1001C900FAE493A3F8E493A3C8C582C8CAC583CA4D
:1001D900F0A3C8C582C8CAC583CADFE9DEE780BE05
:0103C9000033
:00000001FF
