:1003AB00020E000102240021020800211410003F5C
:1003BB000006005B004F0066006D007D0007004FDC
:0203CB00000030
:100315007C007D0A12012F7C007D0A12012FAE049C
:09032500AF051203D2AF2DAE2C7E
:04032E00AB07AA0669
:100332009000007C007D0CAF03AE021200C8C3E542
:0A034200829FE5839E5003A380E92B
:01034C00228E
:0D000600D2A8D2AAD288D28AD2AFD2B52217
:0300030002034DA8
:10034D00C0E0C0D075D000C006C007E50F450E70E7
:10035D0005FE7F0180047E007F008E0E8F0FE50F5E
:10036D006401450E7004D2B58002C2B5D007D00627
:05037D00D0D0D0E032F9
:0300130002038263
:10038200C0E0C0D075D000C006C007E52564214595
:10039200247005FE7F0C80047E007F218E248F2531
:0903A200D007D006D0D0D0E03223
:0403CE007F0A7E0024
:0B03D200EF25E02410F808E6F590226B
:040016008E268F277C
:10001A00752C00752D0AE4F52AF52BC3E52B9527D7
:10002A00E52A952640030200C7E4F528F529AE2CF7
:10003A00E52D7802C333CE33CED8F9FDAC067E0463
:10004A007FB01200DAC3E5299FE5289E5037C2B671
:10005A00C2B7AE0AAF0B120315C2B6D2B7AE0CAF17
:10006A000D120315D2B6C2B7AE0AAF0B12031CD2D9
:10007A00B6D2B7AF0DAE0C1203270529E52970AE2B
:10008A000528020038D3E50B9400E50A64809480C1
:10009A004008E50B150B7002150AD3E50D9400E52F
:1000AA000C648094804008E50D150D7002150C054E
:0D00BA002BE52B6003020025052A0200251E
:0100C7002216
:1002D900E4F50AF50BF50CF50DF590EE702DEF240C
:1002E900F4601F24FA600E24F17020750800750966
:1002F9002175A021221203CE75080075091275A077
:0C030900122275080075090C75A00C226A
:1001F100EE7076EF24F4604824FA602E24F17069E1
:10020100E509642145086061E5096412450860104B
:1002110075A00A750A00750B027F027E0012001696
:1002210075A021750800750921221203CE75A0124F
:10023100750800750912E4F50AF50BF50CF50D22A8
:10024100E509640C45086021E50964124508601060
:1002510075A011750C00750D027F027E001200164B
:0A02610075A00C75080075090C2249
:10026B001200067F127E001202D91203CE7FE87EA7
:10027B000312032EE50F6401450E70357F21FE122C
:10028B0001F1750A00750B07750C00750D057F05DF
:10029B007E001200167F0C7E001201F1750A0075AC
:1002AB000B05750C00750D077F057E00120016807F
:1002BB00C3E5256421452470057F21FE80047F0C56
:0E02CB007E001201F17F647E0012032E80A6D9
:0300000002016595
:0C016500787FE4F6D8FD75812D0201AC16
:1000C800EF8DF0A4A8F0CF8CF0A428CE8DF0A42E4C
:0200D800FE2206
:1000DA00BC000BBE0029EF8DF084FFADF022E4CC0A
:1000EA00F875F008EF2FFFEE33FEEC33FCEE9DECD3
:1000FA00984005FCEE9DFE0FD5F0E9E4CEFD22ED19
:10010A00F8F5F0EE8420D21CFEADF075F008EF2F62
:10011A00FFED33FD4007985006D5F0F222C398FD53
:05012A000FD5F0EA22F0
:10012F00C2D5EC30E709B2D5E4C39DFDE49CFCEEEB
:10013F0030E715B2D5E4C39FFFE49EFE1200DAC389
:10014F00E49DFDE49CFC80031200DA30D507C3E484
:06015F009FFFE49EFE225A
:1001710002026BE493A3F8E493A34003F68001F237
:1001810008DFF48029E493A3F85407240CC8C3338F
:10019100C4540F4420C8834004F456800146F6DF5E
:1001A100E4800B01020408102040809003ABE47E40
:1001B100019360BCA3FF543F30E509541FFEE49353
:1001C100A360010ECF54C025E060A840B8E493A31A
:1001D100FAE493A3F8E493A3C8C582C8CAC583CA45
:1001E100F0A3C8C582C8CAC583CADFE9DEE780BEFD
:0103CD00002F
:00000001FF
