:10031C00434F4E4649524D3F5B5945532F4E4F5D0F
:10032C00003E20594553003E204E4F20005365742B
:10033C007570206465766963653A003E204D4F44C4
:10034C00453A2055534552202020003E204D4F4425
:10035C00453A204C494748542020003E204D4F44FC
:10036C00453A2054494D45525F31003E204D4F4493
:10037C00453A2054494D45525F32003E2054524973
:10038C00473A204E4F4E4520494E56003E2054527F
:10039C0049473A20494E564552544544003E205355
:1003AC00544154453A204F4E2020202020003E201E
:1003BC0053544154453A204F464620202020003EBD
:1003CC002053544154453A20534B4950202020008F
:1003DC00696E637200534554202020202000534541
:1003EC0043434F4E4420004D494E55544520200068
:1003FC00484F5552202020200044415445202020B5
:10040C0020004D4F4E544820202000594541522089
:10041C00202020000A53797374656D207374617405
:10042C0075733A000A446576696365313A20000AAF
:10043C00446576696365323A20000A4465766963DF
:10044C0065333A20000A446576696365343A2000C6
:10045C000A446576696365353A20000A4E4F544567
:10046C003A20312D6F66663B20302D6F6E0A006985
:10047C006E763100696E763200696E763300696E85
:10048C00763400696E76350054494D453A2020206B
:10049C0000444154453A20202000534554555020E7
:1004AC004D4F4445202020202020005345545550CA
:1004BC002054494D452020202020200053455455E0
:1004CC0050205359535F54494D45202000534554F7
:1004DC0055502054494D45525F3120202000534542
:1004EC005455502054494D45525F32202020005322
:1004FC004554555020444556494345202020200062
:10050C0053455455502020444556494345203120ED
:10051C0000534554555020204445564943452032FC
:10052C0020005345545550202044455649434520FE
:10053C0033200053455455502020444556494345DB
:10054C0020342000534554555020204445564943EF
:10055C0045203520000A53595354454D20464155EA
:10056C004C542121210A504C5320505245535320B6
:10057C0052455345542121210A0057726F6E672052
:10058C004D4F44452E2E2E00504C532070726573E7
:10059C0073205245534554000A48656C6C6F210A10
:1005AC0046726F6D206E6778782E667573210A001F
:1005BC0048656C6C6F210046726F6D204E47585821
:0705CC00465553203A3E00A2
:101530004100410041001E0041001D004200010029
:101540000042004F000041004E0041004B004100AE
:10155000040041001A0041001C004100420041000B
:101560001B004100030042004C000051001F544981
:101570004D453A20202058583A58583A585800516A
:101580000030444154453A20202058582F58582FB5
:1015900058580047000C070C0B1815052D4700057F
:1015A000070C0B18150537470013070C0B18150609
:0115B0000535
:0D1DFE00EB1392B4D2B6900041E0FF7E00DE
:101E0B00E4FDFCC3ED9FEC9E50070DBD00010C8063
:011E1B00F2D4
:011E1C0022A3
:081CE200900051EEF0A3EFF0B9
:101CEA00E4FBFAA3F0A3F0900051E0FEA3E0FF7C2E
:101CFA00007D131209C5C3EB9FEA9E50070BBB0078
:041D0A00010A80E367
:011D0E0022B2
:101E9100EFB40104D2A8D288EF7004C2A8C288228C
:101D0F00EF601424FE601A14601A14601A14600A2B
:101D1F0024047016D2A922C2A922758A67758CFC79
:0B1D2F0022D28C22C28C2243890122A8
:0B1ECA00EFB40103D38001C392AF22EC
:10137D0078587C007D017B017E007F071209379034
:05138D00005F743FF059
:1013920090005FE0FE30E00F90005EE0FF900057AB
:1013A200E06F60037F0022EE30E10F90005DE0FF0E
:1013B200900056E06F60037F002290005FE030E211
:1013C2000F90005CE0FF900055E06F60037F002209
:1013D20090005FE0FE30E30F900059E0FF90005272
:1013E200E06F60037F0022EE30E40F90005AE0FFCE
:1013F200900053E06F60037F002290005FE030E5D1
:101402000F90005BE0FF900054E06F60037F0022CA
:031412007F012235
:0B187200900069EBF0A3EAF0A3E9F09E
:10187D0090006FE0C3940150037F0022E49000714B
:10188D00F090006FE014FF900071E0FED39F504385
:10189D00900070E0FDEE2DFFE433FE90006CE0FB58
:1018AD00A3E0FAA3E0F98F828E83120976FF9000F0
:1018BD0069E0FBA3E0FAA3E0F9900071E0F5827511
:1018CD0083001209766F60037F0022900071E0049F
:0518DD00F080AE7F0168
:0118E20022E3
:0E162E00900060EBF0A3EAF0A3E9F0A3EDF06A
:10163C00900067E0FFEDD39F400122900068E0FC32
:10164C00900063E0FF900067E0C39FFEECD39E50D8
:10165C0041900064E0FBA3E0FAA3E0F9ECF582759D
:10166C008300E92582F9E5833AFA90006CEBF0A34C
:10167C00EAF0A3E9F0A3EFF0E4A3F0900060E0FB44
:10168C00A3E0FAA3E0F9121872EF6003AF04220C86
:07169C0080AE900067E0FF43
:0116A3002224
:0C1EBE00D2A77F327E00121E0BC2A722AA
:101E4F008F807F327E00121E0BC2A6121E0BC2A500
:061E5F00121E0B021EBE64
:101E65008F807F327E00121E0BD2A6121E0BC2A5DA
:061E7500121E0B021EBE4E
:0E18000090007BEBF0A3EAF0A3E9F0A3EDF07B
:10180E00E4A3F0A3F0EDC39400502090007BE0FB26
:10181E00A3E0FAA3E0F912095DFF6047121E65907E
:10182E00007CE475F001120A2C80E090007EE0FF4F
:10183E00A3E0FCA3E0FDC39FEC9400502690007B38
:10184E00E0FBA3E0FAA3E0F98D828C83120976FF08
:10185E00121E65900080E004F070D090007FE004CE
:03186E00F080C83F
:011871002254
:101D8E00AB05AA048F828E83E58245837007EB2410
:101D9E0080FF121E4FAE83AF82EF64014E7007EBD1
:071DAE0024C0FF121E4F22AA
:0E1CAF00900074EBF0A3EAF0A3E9F0A3EDF0CF
:101CBD00E490007AF0900078E0FF7E00A3E0FD7CD8
:101CCD0000121D8E900074E0FBA3E0FAA3E0F9A3CF
:051CDD00E0FD0218000B
:0A1B6D009000727401F0E4A3F0FD93
:101B770090006EEBF0A3EAF0A3E9F0ED7019900086
:101B87006EE0FBA3E0FAA3E0F9AF050D8F82758342
:101B97000012097670E81D90006EE0FBA3E0FAA33F
:101BA700E0F9900072E0900078F0900073E0900008
:051BB70079F0021CAFF3
:0A19AB007BFFE4900065F0A3F0FD5F
:1019B500900061EBF0A3EAF0A3E9F0A3EDF07F015D
:1019C500121E4FE07020900061E0FBA3E0FAA3E057
:1019D500F9A3E0FF04F08F8275830012097670E6A3
:1019E500900064E014F0900061E0FBA3E0FAA3E04E
:1019F500F9A3E0FDA3E0900078F0900066E0900088
:051A050079F0021CAFA6
:101E7B007F327E00121E0B7F38121E4F7F0C121EFC
:061E8B004F7F06021E4F0E
:051EB100E4332430FFC2
:081EB6008F993099FDC29922B9
:051719007BFFE4FDFC74
:10171E00900052EBF0A3EAF0A3E9F0A3ECF0A3EDF6
:01172E00F0CA
:10172F004C7020900052E0FBA3E0FAA3E0F91209FD
:10173F005DFF6049121EB6900053E475F001120A66
:10174F002C80E07D017C00C3900056E09DEC64800E
:10175F00F8900055E06480984023900052E0FBA37E
:10176F00E0FAA3E0F974FF2DF58274FF3CF58312C4
:0D177F000976FF121EB60DBD00010C80CAD8
:01178C00223A
:041C42007BFF7D04A3
:101C4600900000E0FEC3940150037F0022900064E0
:101C56007401F0A37400F0A37443F0A3EEF0E4A3C0
:101C6600F012162E900000E0FEEFC39E50047F0196
:051C760080027F002246
:101E1D007F01121ECAD2AC438920758DFD758BFDD5
:0B1E2D00759850D28EE4900000F02267
:03002300021A6658
:0F1A6600C0E0C083C082C0D075D000C005C007EB
:101A750030983AAD99AF05ED640D6004EFB40A04F2
:101A8500C2988029AF057441D39D5009EF945A50EF
:101A95000474E02DFD900000E0540704F0AF05E06C
:0D1AA5002442F582E43400F583EDF0C29890
:0D1AB200D007D005D0D0D082D083D0E03254
:10178D00F9120976FF75F00A8475F00A84900056F7
:10179D00E5F0F0EF75F00A84AFF0A3EFF09000568E
:0E17AD00E0FEC454F02F900058F0E4FD7F8E53
:0417BB00AB05A907CA
:1017BF00E4FA90001E121E07D2B5C2B6900041E0A7
:1017CF00FF121E0B0AE9121DFFC2B6E0FF121E0B1D
:1017DF00E9C313F90AEAB409EC7A01121DFEC2B685
:1017EF00E0FF121E0BEBC313FB0AEAB409EDC2B5FF
:0117FF0022C7
:0216A400AB0792
:1016A600E4F9900069F090001E121E07D2B5C2B68A
:1016B600900041E0FF121E0B7A01121DFEC2B6E039
:1016C600FF121E0BEBC313FB0AEAB408ED121DFE54
:1016D600E4FAC2B690001D121E07A2B4E4339000CD
:1016E60069F0E05401FFA802088002C333D8FC4920
:1016F600F990001DE0FF900041E0C39FFFE49400D5
:10170600FE121E0BD2B6121E070AEAB408C4C2B5F0
:02171600AF0121
:0117180022AE
:071EE000C2B4C2B6C2B52274
:0E0E2900900060EBF0A3EAF0A3E9F0A3EDF077
:100E370030E0361217B77F811216A4900066EFF0E4
:100E4700E0FF5470C4540F75F00AA4FE900064F0DC
:100E5700EF540FA3F02EFF900060E0FBA3E0FAA38E
:100E6700E0F9900006EF1209A3900063E030E13645
:100E77001217B77F831216A4900066EFF0E0FF54B5
:100E870070C4540F75F00AA4FE900064F0EF540F7D
:100E9700A3F02EFF900060E0FBA3E0FAA3E0F99037
:100EA7000005EF1209A3900063E030E2671217B75D
:100EB7007F851216A4900066EFF054806401702AB3
:100EC700E0FF5410C4540F75F00AA4FE900064F0BC
:100ED700EF540FFFA3F0A3E05420C4135407FDEE13
:0A0EE7002FFFED75F00CA42F80170B
:100EF100900066E0FF5430C4540F75F00AA4FEA3BD
:100F0100F0EF540FA3F02EFF900060E0FBA3E0FA96
:0A0F1100A3E0F9900004EF1209A319
:100F1B00900063E030E3361217B77F871216A49068
:100F2B000066EFF0E0FF5430C4540F75F00AA4FED6
:100F3B00900064F0EF540FA3F02EFF900060E0FBE5
:100F4B00A3E0FAA3E0F9900001EF1209A39000636C
:100F5B00E030E4361217B77F891216A4900066EFC3
:100F6B00F0E0FF5410C4540F75F00AA4FE90006417
:100F7B00F0EF540FA3F02EFF900060E0FBA3E0FA1C
:100F8B00A3E0F9900002EF1209A3900063E030E5B3
:100F9B00361217B77F8D1216A4900066EFF0E0FFA4
:100FAB0054F0C4540F75F00AA4FE900064F0EF5493
:100FBB000FA3F02EFF900060E0FBA3E0FAA3E0F993
:070FCB00900003EF1209A3DF
:010FD20022FC
:0E0FD300900052EBF0A3EAF0A3E9F0A3EDF0DA
:100FE100E4A3F0A3F0A3F0ED30E01A900052E0FB8F
:100FF100A3E0FAA3E090000612178D900058E0FDDF
:101001007F801217BB900055E030E11A900052E04A
:10101100FBA3E0FAA3E090000512178D900058E0C1
:10102100FD7F821217BB900055E030E21B90005209
:10103100E0FBA3E0FAA3E0F990000412178E900000
:1010410058E0FD7F841217BB900055E030E31B9000
:101051000052E0FBA3E0FAA3E0F990000112178E21
:10106100900058E0FD7F861217BB900055E030E4F8
:101071001B900052E0FBA3E0FAA3E0F990000212FA
:10108100178E900058E0FD7F881217BB900055E045
:1010910030E51B900052E0FBA3E0FAA3E0F99000D9
:1010A1000312178E900058E0FD7F8C1217BB900041
:1010B10055E030E624900052E0FBA3E0FAA3E0F90A
:1010C10012095D75F00A84900057E5F01217B69089
:0910D1000057E0FD7F9A1217BBE5
:0110DA0022F3
:03000600021EE0F7
:0B1ED500C2B6D2B5D2B4D2B6C2B5225C
:021DB500AB077A
:101DB700C2B6E4FAEBC4131313540124FF92B4EB35
:101DC70025E0FBC2B67F057E00121E0BD2B60AEADB
:031DD700B408E16C
:011DDA0022E6
:101C0700E4900051F0A3F0C2B6FDFC900052E0252D
:101C1700E0F0900051E033F0D2B6C2B6A2B7E43399
:101C2700FFE0F0A3E04FF00DBD00010CED640C4C9C
:0A1C370070D9900051E0FEA3E0FF19
:011C41002280
:10000E00C2B6C2B5121DB57F06DFFED2B6C2B6129B
:04001E001C07D2B534
:0100220022BB
:0F1EA100900001E0FEA3E0FFE4900001F0A3F049
:011EB000220F
:081ABF0090005EE0FEA3E0FFD1
:101AC700EF8EF0120A681B0510EF1AFF18E71AFCD1
:101AD70030CF1B0838C71B0E42BD1B114AB51B145C
:101AE70052AD1B0B5AA51AF968971B027A8500009D
:101AF7001AF97F00227F01227F02227F03227F04BF
:101B0700227F05227F06227F07227F08227F092264
:101D3A00E490004FF0A3F0900001F0A3F090004B64
:101D4A00F07F01121ECA121E91121D0F7F04121D6E
:0B1D5A000F7F02121D0F7F05021D0FFE
:03000B00021D656E
:101D6500C0E0C083C082C0D075D000C0077F051217
:101D75001D0F90004EE0C394435003E004F0D007DC
:091D8500D0D0D082D083D0E0322E
:030003000212C81E
:1012C800C0E0C083C082C0D075D000C000C004C0D8
:0512D80005C006C0077F
:1012DD00E4FC90004EE0FD7F05121D0FE4F0900040
:1012ED004BE004F0C3ED9443EC9400400C74FEF01D
:1012FD0090004FE4F0A3F0806490004BE0FFD364C6
:10130D0080F87480985031EF6480949F502AC3ED1B
:10131D009402EC94004046741F9FFF7E007401A858
:10132D0007088005C333CE33CED8F9FF90004FE0C8
:10133D004EF0A3E04FF0802590004BE0C364809405
:10134D00A0401A90004FE0FFA3E0900001CFF0A362
:0D135D00EFF090004FE4F0A3F090004BF093
:10136A00D007D006D005D004D000D0D0D082D08308
:03137A00D0E0328E
:100C620090006374FFF0A37404F0A3749DF078669F
:100C72007C007D017B017A00790C7E007F071209DE
:0D0C82003790006D7401F07BFF7A047994C7
:100C8F0012095D90001FF09000011209769000206C
:100C9F00F0900002120976900021F09000031209E3
:100CAF0076900022F0900004120976900023F090C5
:100CBF000005120976900024F09000061209769034
:100CCF000025F0900007120976900026F09000633F
:100CDF00E0FBA3E0FAA3E0F912095D900030F09079
:100CEF000001120976900031F090000212097690FF
:100CFF000032F0900003120976900033F090000458
:100D0F00120976900034F0900005120976900035A4
:100D1F00F0900006120976900036F0900007120945
:100D2F0076900037F090006DE030E07290006AE04E
:100D3F00FD75F00A8475F00A84E5F02430900027E1
:100D4F00F0ED75F00A84E5F02430A3F090006BE02D
:100D5F00FD75F00A8475F00A84E5F0243090002ABE
:100D6F00F0ED75F00A84E5F02430A3F090006CE00C
:100D7F00FD75F00A8475F00A84E5F0243090002D9B
:100D8F00F0ED75F00A84E5F02430A3F07B017A00D2
:100D9F00791FE4900072F0A3F07D10121B77900082
:100DAF006DE030E174900067E0FD75F00A8475F036
:100DBF000A84E5F02430900038F0ED75F00A84E5F0
:100DCF00F02430A3F0900068E0FD75F00A8475F010
:100DDF000A84E5F0243090003BF0ED75F00A84E5CD
:100DEF00F02430A3F0900069E0FD75F00A8475F0EF
:100DFF000A84E5F0243090003EF0ED75F00A84E5AA
:100E0F00F02430A3F07B017A0079309000727401E6
:0A0E1F00F0E4A3F07D10121B77220F
:101A0A00E4900060F07BFF7A03791C1219AE900013
:101A1A0060E07BFF60067A03792D80047A037933CC
:101A2A00121B6D121EA1EF8EF0120A681A4E02FDE9
:101A3A001A5A22DD1A60629D1A63A25D1A50C23DCB
:101A4A0000001A188000900060E0045401F080BE83
:0B1A5A00900060E0FF227F00227F0070
:011A6500225E
:090A950090001AE075F00584F0F0
:100A9E00E4900052F0A3F07BFF7A0379391219AE7D
:100AAE00121EA1900054EEF0A3EFF0BE6206BF9DA1
:100ABE00037F8F22900054E0FEA3E0FF64DD7003FD
:100ACE00EE6422605DBEC20BBF3D08900052E00492
:100ADE005403F0900054E0B4020EA3E0B4FD09906C
:100AEE000052E024035403F0E4900000F090005212
:100AFE00E014601214601714601C240370A27BFFB4
:100B0E007A03794780167BFF7A037957800E7BFF35
:100B1E007A03796780067BFF7A037977121B6D0261
:100B2E000AAE900052E0FFA3F09000527401F0EF75
:100B3E006069121EA1900054EEF0A3EFF0BE6206A3
:100B4E00BF9D037F8F22900054E0FEA3E0FF64DD83
:100B5E007003EE64226044BEC20BBF3D089000528B
:100B6E00E0045401F0900054E0B4020DA3E0B4FD93
:100B7E0008900052E0045401F0E4900000F0900060
:100B8E0052E014600B0470AA7BFF7A03798780060B
:100B9E007BFF7A037998121B6D8097900053E0FFCC
:100BAE00900052E025E025E0FEEF4EA3F0900052BB
:100BBE007402F0121EA1900054EEF0A3EFF0BE628C
:100BCE0006BF9D037F8F22900054E0FEA3E0FF64DA
:100BDE00DD7003EE64226067BEC216BF3D13900047
:100BEE0052E02401FFE433FE7C007D031209D7EDB1
:100BFE00F0900054E0B40218A3E0B4FD139000523C
:100C0E00E02402FFE433FE7C007D031209D7EDF0F1
:100C1E00E4900000F0900052E014600F1460142471
:100C2E000270907BFF7A0379A9800E7BFF7A03799D
:100C3E00BA80067BFF7A0379CB121B6D020BC19033
:100C4E000053E0FF900052E033333354F8FEEF4E82
:030C5E00FFA3F001
:010C61002270
:0B05D300900052EBF0A3EAF0A3E9F067
:1005DE00E490005CF0A3F0A3F0A3F07B017A007925
:1005EE00557D3F120E29121EA190005EEEF0A3EF74
:1005FE00F064DD7003EE6422700302083690005E34
:10060E00E0FCA3E0FDBC6206BD9D037F0022BCC2E0
:10061E000BBD3D0890005CE02401801290005EE06E
:10062E00B40218A3E0B4FD1390005CE02405FFE4CF
:10063E0033FE7C007D061209D7EDF0900064740144
:10064E00F0A37400F0A37443F0900000E0900067F4
:10065E00F0E4A3F07BFF7A0379DC7D0412162E9072
:10066E00005DEFF02401FFE433FE900000E0FDC3D7
:10067E00EF9D7480F86E98501290005DE02447F55F
:10068E0082E43400F583E024D08001E490005DF034
:10069E00E4900000F090005CE0146040146061147F
:1006AE007003020732147003020755147003020719
:1006BE007824056003020799121ABF90005BE02FA1
:1006CE00FFE433FE90005DE07C002FFFEC3EFE7DEC
:1006DE003C1209D790005BEDF0020799121ABF90F9
:1006EE00005AE02FFFE433FE90005DE07C002FFF08
:1006FE00EC3EFE7D3C1209D790005AEDF0020799B0
:10070E00121ABF900059E02FFFE433FE90005DE017
:10071E007C002FFFEC3EFE7D181209D7900059ED9C
:10072E00F0020799121ABF900056E02FFFE433FE35
:10073E0090005DE07C002FFFEC3EFE7D1F1209D77E
:10074E00900056EDF08044121ABF900057E02FFF34
:10075E00E433FE90005DE07C002FFFEC3EFE7D0C4E
:10076E001209D7900057EDF08021121ABF90005851
:10077E00E02FFFE433FE90005DE07C002FFFEC3EA7
:10078E00FE7D641209D7900058EDF090005CE07089
:10079E000F90006374FFF0A37403F0A374EA8062F9
:1007AE0090005CE0B4010F90006374FFF0A374033B
:1007BE00F0A374F3804C90005CE0B4020F900063E1
:1007CE0074FFF0A37403F0A374FC803690005CE019
:1007DE00B4030F90006374FFF0A37404F0A37405C8
:1007EE00802090005CE0900063B4040C74FFF0A3D2
:1007FE007404F0A3740E800A74FFF0A37404F0A3C3
:10080E007417F078667C007D017B017A0079557E45
:10081E00007F0712093790006D7403F07BFF7A0397
:10082E0079E1120C8F0205F4E4900000F0121A0A1E
:10083E0090005CEFF0601C900052E0FBA3E0FAA386
:10084E00E0F8AC02AD037B017A0079557E007F079C
:08085E0012093790005CE0FF75
:01086600226F
:101415007B017A00790C7D3F120E29900004E07063
:1014250068900012E070627BFF7A047920FDFC125F
:10143500171E7A047930121719A2A0121EB17A0468
:10144500793B121719A2A1121EB17BFF7A047946C6
:10145500E4FDFC12171EA2A2121EB17BFF7A0479CD
:1014650051E4FDFC12171EA2A3121EB17BFF7A04E4
:10147500795CE4FDFC12171EA2A4121EB17BFF7A53
:10148500047967E4FDFC12171E900012E060047FEA
:0F149500008006900004E004FF900004EFF022B6
:1011E000900001E0B4A21BA3E0B45D1690001BE0E8
:1011F000FF30E0047E0080027E01EF54FE4E90003E
:101200001BF07A04797B121C42EF601CE490000012
:10121000F090001BE030E00654FEFF0212C2900086
:101220001BE04401FF0212C27A047980121C42EFD3
:10123000601AE4900000F090001BE030E10554FDDE
:10124000FF800790001BE04402FF80767BFF7A045A
:1012500079857D04121C46EF601AE4900000F0903E
:10126000001BE030E20554FBFF800790001BE044C8
:1012700004FF804E7BFF7A04798A7D04121C46EFBE
:10128000601AE4900000F090001BE030E30554F792
:10129000FF800790001BE04408FF80267BFF7A0454
:1012A000798F7D04121C46EF601DE4900000F090E1
:1012B000001BE030E40554EFFF800790001BE04482
:0812C00010FF90001BEFF0226B
:1015B2007FA412000E7FA412000E7C037DE81209A4
:1015C200D7D3ED941EEC940040047F0180027F008B
:1015D20090001CE054FE4FF078517C007D017B01AD
:1015E2007A00790C7E007F071209377A007905129A
:1015F200137DEF90001C6006E04402F08004E0548A
:10160200FDF078517C007D017B017A00790C7E002F
:101612007F071209377A00791312137DEF90001CAD
:0C1622006005E04404F022E054FBF022DC
:0E10DB00900051EFF0A3EDF0A3EAF0A3EBF0CC
:1010E900E4F990004CE05AFCA3E05BFD4C701A90C7
:1010F9000051E014FFF87401088002C333D8FCFFE3
:1011090090001BE05FF90211DD900051E01425E029
:10111900FB7E007401A803088005C333CE33CED803
:10112900F96D7002EC6E702F900052E0FF90000391
:10113900E05F601290001CE030E0047F0080027FD5
:1011490001A9070211DD90001CE030E0047F018055
:10115900027F00A907807D7E007402A8030880052C
:10116900C333CE33CED8F9FF900053E0FCA3E0FDA2
:1011790090004CE05CFCA3E05DFDB5071FECB506F3
:101189001B900052E0FF900003E05F600B90001C91
:10119900E030E104E4F9803C79018038900051E0C5
:1011A9001425E0FF7E007403A807088005C333CE29
:1011B90033CED8F9B5051DECB50619900052E0FFFC
:1011C900900003E05F600B90001CE030E204E4F95A
:0611D90080027901AF0164
:0111DF0022ED
:101BBC007B037A007D017F011210DBEF24FF92A0E2
:101BCC007B0C7D027F021210DBEF24FF92A17B3095
:101BDC007D047F031210DBEF24FF92A27BC07D08F3
:101BEC007F041210DBEF24FF92A37B007A037D109D
:0B1BFC007F051210DBEF24FF92A422F3
:1018E30090001AE024FB603714603B24EDB40A0037
:1018F300505190190375F003A4C58325F0C5837374
:10190300021930021930021940021946021946021F
:10191300193002193002193002193002193222909B
:10192300001A7406F02290001A7405F022800790C2
:10193300001A741EF02290001AE004F02290001A9C
:041943007419F02201
:1019470090001AE024FB603714603B24EDB40A00D2
:10195700505190196775F003A4C58325F0C58373AB
:1019670002199D02199B02199B0219AA0219AA02C0
:10197700199402199B02199B02199B02199B229029
:10198700001A7406F02290001A7405F02290001ACB
:101997007422F022800790001A741BF02290001A1C
:0419A700E014F02236
:101B1700121EA1EF4E604EEF8EF0120A681B69028B
:101B2700FD1B3822DD1B4B629D1B66C23D00001B5F
:101B37006C90001AE0FF602DC394AA5028EF75F04F
:101B470005A4F02290001AE0FF700304F022EFB41E
:101B57000103E48005EF75F0058490001AF0220276
:051B670018E31219470C
:011B6C002256
:1000260090001AE0120A42006D00009D0100A90529
:10003600011F0600B51900E41A01011B012B1E0160
:10004600871F01E92002492102A92200C17D00F093
:1000560082010D8701379601939B01F5A00255A5F4
:1000660002B4AA000002FF90006374FFF0A37404B8
:10007600F0A3749DF078667C007D017B017A00799F
:100086000C7E007F0712093790006D7403F07BFF2A
:100096007A047994020C8F120C627BFF7A0479A69B
:1000A600020318120C627BFF7A0479B70203181256
:1000B6000C627BFF7A0479C802031890001AE07577
:1000C600F00584F07B017A00790C1205D3EF7003FA
:1000D60002031B7B017A00790C7D37020FD3120CC9
:1000E600627BFF7A0479D902031890001AE075F052
:1000F6000584F07B017A007905801B120C627BFF78
:100106007A0479EA02031890001AE075F00584F083
:100116007B017A0079130205D3120C627BFF7A0405
:1001260079FB020318120C627BFF7A05790C020335
:1001360018120A95900051EFF030E70302031BE016
:10014600F95403FD90004CE0FAA3E054FCFBEAFFEF
:10015600EB4D90004CCFF0A3EFF0E913135401FFE1
:10016600900003E054FE4FF0900051E030E40302AB
:10017600031B1313135401FF90001BE054FE4FF0B2
:1001860022120C627BFF7A05791D020318120A956A
:10019600900051EFF030E70302031BE0FD540375B6
:1001A600F004A4FF90004CE0FAA3E054F3FBEA4508
:1001B600F0FEEB4FFF90004CEEF0A3EFF0EDC31313
:1001C6005402FF900003E054FD4FF0900051E030E0
:1001D600E40302031B13135402FF90001BE054FDBB
:1001E6004FF022120C627BFF7A05792E0203181259
:1001F6000A95900051EFF030E70302031BE0FD542F
:100206000375F010A4FF90004CE0FAA3E054CFFB76
:10021600EA45F0FEEB4FFF90004CEEF0A3EFF0ED59
:100226005404FF900003E054FB4FF0900051E0307F
:10023600E40302031BC3135404FF90001BE054FBAA
:100246004FF022120C627BFF7A05793F02031812E7
:100256000A95900051EFF030E70302031BE0FD54CE
:100266000375F040A4FF90004CE0FAA3E0543FFB76
:10027600EA45F0FEEB4FFF90004CEEF0A3EFF0EDF9
:1002860025E05408FF900003E054F74FF09000512A
:10029600E030E40302031B5408FF90001BE054F710
:1002A6004FF022120C627BFF7A0579508064120AA5
:1002B60095900051EFF020E75CE0FD5403FE9000BE
:1002C6004CE054FCFAA3E0FBEA4EFFEB90004CCF67
:1002D600F0A3EFF0ED25E025E05410FF900003E0D9
:1002E60054EF4FF0900051E020E42A25E05410FF2F
:1002F60090001BE054EF4FF0227BFF7A057961E412
:10030600FDFC12171E7A0579861219AB7BFF7A055A
:050316007994121B6D3B
:01031B0022BF
:101DDB007BFF7A0579A4E4FDFC12171E7A0579BC0A
:101DEB001219AB7BFF7A0579C3121B6D7FD07E076F
:031DFB00021CE2E5
:101C7B00121E7B120006121D3A121E1D121ED57B60
:101C8B00017A00790C7D7F120FD3121DDB90004C73
:101C9B00E4F0A374E4F0E4900003F0900042F090C1
:041CAB00001BF02208
:101E3800121C7B1214151211E01215B2121BBC12DF
:071E48001B1712002680ECBD
:030000000214A443
:0C14A400787FE4F6D8FD7581070214EB98
:10086700E709F608DFFA8046E709F208DFFA803E73
:1008770088828C83E709F0A3DFFA8032E309F60860
:10088700DFFA8078E309F208DFFA807088828C83C8
:10089700E309F0A3DFFA806489828A83E0A3F6087C
:1008A700DFFA805889828A83E0A3F208DFFA804C56
:1008B70080D280FA80C680D4806980F2803380102D
:1008C70080A680EA809A80A880DA80E280CA803396
:1008D70089828A83ECFAE493A3C8C582C8CCC5830E
:1008E700CCF0A3C8C582C8CCC583CCDFE9DEE780DE
:1008F7000D89828A83E493A3F608DFF9ECFAA9F05D
:10090700EDFB2289828A83ECFAE0A3C8C582C8CCB2
:10091700C583CCF0A3C8C582C8CCC583CCDFEADECB
:10092700E880DB89828A83E493A3F208DFF980CC2D
:1009370088F0EF60010E4E60C388F0ED2402B40426
:100947000050B9F582EB2402B4040050AF232345CD
:0609570082239008B77333
:10095D00BB010689828A83E0225002E722BBFE0298
:09096D00E32289828A83E49322CB
:10097600BB010CE58229F582E5833AF583E0225036
:1009860006E92582F8E622BBFE06E92582F8E22280
:0D099600E58229F582E5833AF583E493229A
:1009A300F8BB010DE58229F582E5833AF583E8F08A
:1009B300225006E92582C8F622BBFE05E92582C836
:0209C300F2221E
:1009C500EF8DF0A4A8F0CF8CF0A428CE8DF0A42E46
:0209D500FE2200
:1009D700BC000BBE0029EF8DF084FFADF022E4CC04
:1009E700F875F008EF2FFFEE33FEEC33FCEE9DECCD
:1009F700984005FCEE9DFE0FD5F0E9E4CEFD22ED13
:100A0700F8F5F0EE8420D21CFEADF075F008EF2F5C
:100A1700FFED33FD4007985006D5F0F222C398FD4D
:050A27000FD5F0EA22EA
:100A2C00C5F0F8A3E028F0C5F0F8E5821582700255
:060A3C001583E038F022F2
:100A4200D083D082F8E4937012740193700DA3A343
:100A520093F8740193F5828883E473740293686057
:060A6200EFA3A3A380DF57
:100A6800D083D082F8E4937012740193700DA3A31D
:100A780093F8740193F5828883E473740293B5F054
:0D0A8800067403936860E9A3A3A3A380D8BC
:1014B000021E38E493A3F8E493A34003F68001F2FC
:1014C00008DFF48029E493A3F85407240CC8C3333D
:1014D000C4540F4420C8834004F456800146F6DF0C
:1014E000E4800B0102040810204080901530E47E57
:1014F000019360BCA3FF543F30E509541FFEE49301
:10150000A360010ECF54C025E060A840B8E493A3C7
:10151000FAE493A3F8E493A3C8C582C8CAC583CAF2
:10152000F0A3C8C582C8CAC583CADFE9DEE780BEAA
:0115B1000039
:00000001FF
