:10031C00434F4E4649524D3F5B5945532F4E4F5D0F
:10032C00003E20594553003E204E4F20005365742B
:10033C007570206465766963653A003E204D4F44C4
:10034C00453A2055534552202020003E204D4F4425
:10035C00453A204C494748542020003E204D4F44FC
:10036C00453A2054494D45525F31003E204D4F4493
:10037C00453A2054494D45525F32003E2054524973
:10038C00473A204E4F4E2D494E5620003E20545297
:10039C0049473A20494E564552544544003E205355
:1003AC00544154453A204F4E2020202020003E201E
:1003BC0053544154453A204F464620202020003EBD
:1003CC002053544154453A20534B4950202020008F
:1003DC00534554202020202000534543434F4E4486
:1003EC0020004D494E555445202000484F55522071
:1003FC00202020004441544520202020004D4F4E09
:10040C005448202020005945415220202020000A29
:10041C0053797374656D207374617475733A000A43
:10042C00446576696365313A20000A4465766963F0
:10043C0065323A20000A446576696365333A2000D8
:10044C000A446576696365343A20000A4465766926
:10045C006365353A20000A4E4F54453A20312D6FD2
:10046C0066663B20302D6F6E0A00696E763100692E
:10047C006E763200696E763300696E763400696E82
:10048C0076350054494D453A2020200044415445CE
:10049C003A202020005345545550204D4F444520C0
:1004AC0020202020200053455455502054494D45C0
:1004BC0020202020202000534554555020535953C0
:1004CC005F54494D45202000534554555020544904
:1004DC004D45525F31202020005345545550205437
:1004EC00494D45525F322020200053455455502031
:1004FC00444556494345202020200053455455502F
:10050C00202044455649434520312000534554553D
:10051C005020204445564943452032200053455431
:10052C00555020204445564943452033200053451F
:10053C0054555020204445564943452034200053FF
:10054C0045545550202044455649434520352000FC
:10055C000A53595354454D204641554C54212121A1
:10056C000A504C5320505245535320524553455436
:10057C002121210A0057726F6E67204D4F44452E82
:10058C002E2E00504C5320707265737320524553BD
:10059C004554000A48656C6C6F210A46726F6D20D9
:1005AC006E6778782E667573210A0048656C6C6FDF
:1005BC00210046726F6D204E475858465553203ACD
:0205CC003E00EF
:10159A004100410041001E0041001D0042000100BF
:1015AA0000420050000041004E0041004B00410043
:1015BA00040041001A0041001C00410042004100A1
:1015CA001B004100030042004C000051001F544917
:1015DA004D453A20202058583A58583A5858005100
:1015EA000030444154453A20202058582F58582F4B
:1015FA0058580047000C070C0B1815052D47000515
:10160A00070C0B18150537470013070C0B1815069E
:01161A0005CA
:0D1E1D00EB1392B4D2B6900041E0FF7E00BE
:101E2A00E4FDFCC3ED9FEC9E50070DBD00010C8044
:011E3A00F2B5
:011E3B002284
:081D0100900052EEF0A3EFF098
:101D0900E4FBFAA3F0A3F0900052E0FEA3E0FF7C0D
:101D1900007D13120966C3EB9FEA9E50070BBB00B7
:041D2900010A80E348
:011D2D002293
:101EB000EFB40104D2A8D288EF7004C2A8C288226D
:101D2E00EF601424FE601A14601A14601A14600A0C
:101D3E0024047016D2A922C2A922758A67758CFC5A
:0B1D4E0022D28C22C28C224389012289
:0B1EE900EFB40103D38001C392AF22CD
:1013E70078597C007D017B017E007F071208D89029
:0513F7000060743FF0EE
:1013FC00900060E0FE30E00F90005FE0FF9000583E
:10140C00E06F60037F0022EE30E10F90005EE0FFA2
:10141C00900057E06F60037F0022900060E030E2A4
:10142C000F90005DE0FF900056E06F60037F00229C
:10143C00900060E0FE30E30F90005AE0FF90005304
:10144C00E06F60037F0022EE30E40F90005BE0FF62
:10145C00900054E06F60037F0022900060E030E564
:10146C000F90005CE0FF900055E06F60037F00225E
:03147C007F0122CB
:0B18DC0090005BEBF0A3EAF0A3E9F042
:1018E700900061E0C3940150037F0022E4900063FD
:1018F700F0900061E014FF900063E0FED39F504337
:10190700900062E0FDEE2DFFE433FE90005EE0FB09
:10191700A3E0FAA3E0F98F828E83120917FF9000E4
:101927005BE0FBA3E0FAA3E0F9900063E0F58275C2
:1019370083001209176F60037F0022900063E004A1
:05194700F080AE7F01FD
:01194C002278
:0E169800900052EBF0A3EAF0A3E9F0A3EDF00E
:1016A600900059E0FFEDD39F40012290005AE0FCE4
:1016B600900055E0FF900059E0C39FFEECD39E508A
:1016C60041900056E0FBA3E0FAA3E0F9ECF5827541
:1016D6008300E92582F9E5833AFA90005EEBF0A3F0
:1016E600EAF0A3E9F0A3EFF0E4A3F0900052E0FBE8
:1016F600A3E0FAA3E0F91218DCEF6003AF04220CB2
:0717060080AE900059E0FFE6
:01170D0022B9
:0C1EDD00D2A77F327E00121E2AC2A7226C
:101E6E008F807F327E00121E2AC2A6121E2AC2A5A3
:061E7E00121E2A021EDD07
:101E84008F807F327E00121E2AD2A6121E2AC2A57D
:061E9400121E2A021EDDF1
:0E186A0090007BEBF0A3EAF0A3E9F0A3EDF011
:10187800E4A3F0A3F0EDC39400502090007BE0FBBC
:10188800A3E0FAA3E0F91208FEFF6047121E849055
:10189800007CE475F0011209CD80E090007EE0FF45
:1018A800A3E0FCA3E0FDC39FEC9400502690007BCE
:1018B800E0FBA3E0FAA3E0F98D828C83120917FFFD
:1018C800121E84900080E004F070D090007FE00445
:0318D800F080C8D5
:0118DB0022EA
:101DAD00AB05AA048F828E83E58245837007EB24F1
:101DBD0080FF121E6EAE83AF82EF64014E7007EB93
:071DCD0024C0FF121E6E226C
:0E1CCE00900074EBF0A3EAF0A3E9F0A3EDF0B0
:101CDC00E490007AF0900078E0FF7E00A3E0FD7CB9
:101CEC0000121DAD900074E0FBA3E0FAA3E0F9A391
:051CFC00E0FD02186A82
:0A1BD7009000727401F0E4A3F0FD29
:101BE10090006EEBF0A3EAF0A3E9F0ED701990001C
:101BF1006EE0FBA3E0FAA3E0F9AF050D8F827583D8
:101C01000012091770E81D90006EE0FBA3E0FAA333
:101C1100E0F9900072E0900078F0900073E090009D
:051C210079F0021CCE69
:0A1A15007BFFE4900065F0A3F0FDF4
:101A1F00900061EBF0A3EAF0A3E9F0A3EDF07F01F2
:101A2F00121E6EE07020900061E0FBA3E0FAA3E0CD
:101A3F00F9A3E0FF04F08F8275830012091770E697
:101A4F00900064E014F0900061E0FBA3E0FAA3E0E3
:101A5F00F9A3E0FDA3E0900078F0900066E090001D
:051A6F0079F0021CCE1D
:101E9A007F327E00121E2A7F38121E6E7F0C121E9F
:061EAA006E7F06021E6EB1
:051ED000E4332430FFA3
:081ED5008F993099FDC299229A
:051783007BFFE4FDFC0A
:10178800900052EBF0A3EAF0A3E9F0A3ECF0A3ED8C
:01179800F060
:101799004C7020900052E0FBA3E0FAA3E0F9120894
:1017A900FEFF6049121ED5900053E475F00112093D
:1017B900CD80E07D017C00C3900056E09DEC648003
:1017C900F8900055E06480984023900052E0FBA314
:1017D900E0FAA3E0F974FF2DF58274FF3CF583125A
:0D17E9000917FF121ED50DBD00010C80CAAE
:0117F60022D0
:041C61007BFF7D0484
:101C6500900000E0FEC3940150037F0022900056CF
:101C75007401F0A37400F0A37443F0A3EEF0E4A3A1
:101C8500F0121698900000E0FEEFC39E50047F010D
:051C950080027F002227
:101E3C007F01121EE9D2AC438920758DFD758BFD97
:0B1E4C00759850D28EE4900000F02248
:03002300021AD0EE
:0F1AD000C0E0C083C082C0D075D000C005C00781
:101ADF0030983AAD99AF05ED640D6004EFB40A0488
:101AEF00C2988029AF057441D39D5009EF945A5085
:101AFF000474E02DFD900000E0540704F0AF05E002
:0D1B0F002442F582E43400F583EDF0C29825
:0D1B1C00D007D005D0D0D082D083D0E032E9
:1017F700F9120917FF75F00A8475F00A84900056EC
:10180700E5F0F0EF75F00A84AFF0A3EFF090005623
:0E181700E0FEC454F02F900058F0E4FD7F8EE8
:04182500AB05A9075F
:10182900E4FA90001E121E26D2B5C2B6900041E01D
:10183900FF121E2A0AE9121E1EC2B6E0FF121E2A54
:10184900E9C313F90AEAB409EC7A01121E1DC2B6FA
:10185900E0FF121E2AEBC313FB0AEAB409EDC2B575
:01186900225C
:02170E00AB0727
:10171000E4F9900069F090001E121E26D2B5C2B600
:10172000900041E0FF121E2A7A01121E1DC2B6E08F
:10173000FF121E2AEBC313FB0AEAB408ED121E1DAA
:10174000E4FAC2B690001D121E26A2B4E433900043
:1017500069F0E05401FFA802088002C333D8FC49B5
:10176000F990001DE0FF900041E0C39FFFE494006A
:10177000FE121E2AD2B6121E260AEAB408C4C2B548
:02178000AF01B7
:011782002244
:071EFF00C2B4C2B6C2B52255
:0E0DCA00900060EBF0A3EAF0A3E9F0A3EDF0D7
:100DD80030E0361218217F8112170E900066EFF06E
:100DE800E0FF5470C4540F75F00AA4FE900064F03C
:100DF800EF540FA3F02EFF900060E0FBA3E0FAA3EE
:100E0800E0F9900006EF120944900063E030E13603
:100E18001218217F8312170E900066EFF0E0FF543E
:100E280070C4540F75F00AA4FE900064F0EF540FDC
:100E3800A3F02EFF900060E0FBA3E0FAA3E0F99096
:100E48000005EF120944900063E030E267121821B0
:100E58007F8512170E900066EFF054806401702AA7
:100E6800E0FF5410C4540F75F00AA4FE900064F01B
:100E7800EF540FFFA3F0A3E05420C4135407FDEE72
:0A0E88002FFFED75F00CA42F80176A
:100E9200900066E0FF5430C4540F75F00AA4FEA31C
:100EA200F0EF540FA3F02EFF900060E0FBA3E0FAF6
:0A0EB200A3E0F9900004EF120944D8
:100EBC00900063E030E3361218217F8712170E90F2
:100ECC000066EFF0E0FF5430C4540F75F00AA4FE36
:100EDC00900064F0EF540FA3F02EFF900060E0FB45
:100EEC00A3E0FAA3E0F9900001EF1209449000632B
:100EFC00E030E4361218217F8912170E900066EF4D
:100F0C00F0E0FF5410C4540F75F00AA4FE90006476
:100F1C00F0EF540FA3F02EFF900060E0FBA3E0FA7B
:100F2C00A3E0F9900002EF120944900063E030E571
:100F3C00361218217F8D12170E900066EFF0E0FF2D
:100F4C0054F0C4540F75F00AA4FE900064F0EF54F2
:100F5C000FA3F02EFF900060E0FBA3E0FAA3E0F9F2
:070F6C00900003EF1209449D
:010F7300225B
:0E108300900052EBF0A3EAF0A3E9F0A3EDF029
:10109100E4A3F0A3F0A3F0ED30E01A900052E0FBDE
:1010A100A3E0FAA3E09000061217F7900058E0FDC4
:1010B1007F80121825900055E030E11A900052E02F
:1010C100FBA3E0FAA3E09000051217F7900058E0A7
:1010D100FD7F82121825900055E030E21B900052EE
:1010E100E0FBA3E0FAA3E0F99000041217F89000E6
:1010F10058E0FD7F84121825900055E030E31B90E5
:101101000052E0FBA3E0FAA3E0F99000011217F806
:10111100900058E0FD7F86121825900055E030E4DC
:101121001B900052E0FBA3E0FAA3E0F99000021249
:1011310017F8900058E0FD7F88121825900055E0BF
:1011410030E51B900052E0FBA3E0FAA3E0F9900028
:10115100031217F8900058E0FD7F8C1218259000BB
:1011610055E030E624900052E0FBA3E0FAA3E0F959
:101171001208FE75F00A84900057E5F012182090CD
:091181000057E0FD7F9A121825C9
:01118A002242
:03000600021EFFD8
:0B1EF400C2B6D2B5D2B4D2B6C2B5223D
:021DD400AB075B
:101DD600C2B6E4FAEBC4131313540124FF92B4EB16
:101DE60025E0FBC2B67F057E00121E2AD2B60AEA9D
:031DF600B408E14D
:011DF90022C7
:101C2600E4900052F0A3F0C2B6FDFC900053E0250C
:101C3600E0F0900052E033F0D2B6C2B6A2B7E43379
:101C4600FFE0F0A3E04FF00DBD00010CED640C4C7D
:0A1C560070D9900052E0FEA3E0FFF9
:011C60002261
:10000E00C2B6C2B5121DD47F06DFFED2B6C2B6127C
:04001E001C26D2B515
:0100220022BB
:0F1EC000900001E0FEA3E0FFE4900001F0A3F02A
:011ECF0022F0
:081B290090005EE0FEA3E0FF66
:101B3100EF8EF0120A091B6F10EF1B6918E71B6685
:101B410030CF1B7238C71B7842BD1B7B4AB51B7E49
:101B510052AD1B755AA51B6368971B6C7A850000F3
:101B61001B637F00227F01227F02227F03227F04E9
:101B7100227F05227F06227F07227F08227F0922FA
:101D5900E4900050F0A3F0900001F0A3F090004B44
:101D6900F07F01121EE9121EB0121D2E7F04121DF2
:0B1D79002E7F02121D2E7F05021D2E82
:03000B00021D844F
:101D8400C0E0C083C082C0D075D000C0077F0512F8
:101D94001D2E90004EE0C394435003E004F0D0079E
:091DA400D0D0D082D083D0E0320F
:03000300021332B3
:10133200C0E0C083C082C0D075D000C000C004C06D
:0513420005C006C00714
:10134700E4FC90004EE0FD7F05121D2EE4F09000B6
:101357004BE004F0C3ED9443EC9400400C74FEF0B2
:10136700900050E4F0A3F0806490004BE0FFD3645A
:1013770080F87480985031EF6480949F502AC3EDB1
:101387009402EC94004046741F9FFF7E007401A8EE
:1013970007088005C333CE33CED8F9FF900050E05D
:1013A7004EF0A3E04FF0802590004BE0C36480949B
:1013B700A0401A900050E0FFA3E0900001CFF0A3F7
:0D13C700EFF0900050E4F0A3F090004BF028
:1013D400D007D006D005D004D000D0D0D082D0839E
:0313E400D0E03224
:100C030090006374FFF0A37404F0A37498F0786603
:100C13007C007D017B017A00790C7E007F0712083E
:0D0C2300D890006D7401F07BFF7A04798F8A
:100C30001208FE90001FF09000011209179000208A
:100C4000F0900002120917900021F09000031209A1
:100C500017900022F0900004120917900023F090E2
:100C60000005120917900024F09000061209179051
:100C70000025F0900007120917900026F0900063FD
:100C8000E0FBA3E0FAA3E0F91208FE900030F09038
:100C90000001120917900031F0900002120917901C
:100CA0000032F0900003120917900033F090000416
:100CB000120917900034F0900005120917900035C2
:100CC000F0900006120917900036F0900007120904
:100CD00017900037F090006DE030E07290006AE00D
:100CE000FD75F00A8475F00A84E5F0243090002741
:100CF000F0ED75F00A84E5F02430A3F090006BE08D
:100D0000FD75F00A8475F00A84E5F0243090002A1D
:100D1000F0ED75F00A84E5F02430A3F090006CE06B
:100D2000FD75F00A8475F00A84E5F0243090002DFA
:100D3000F0ED75F00A84E5F02430A3F07B017A0031
:100D4000791FE4900072F0A3F07D10121BE1900077
:100D50006DE030E174900067E0FD75F00A8475F095
:100D60000A84E5F02430900038F0ED75F00A84E54F
:100D7000F02430A3F0900068E0FD75F00A8475F06F
:100D80000A84E5F0243090003BF0ED75F00A84E52C
:100D9000F02430A3F0900069E0FD75F00A8475F04E
:100DA0000A84E5F0243090003EF0ED75F00A84E509
:100DB000F02430A3F07B017A007930900072740146
:0A0DC000F0E4A3F07D10121BE12205
:101A7400E4900060F07BFF7A03791C121A1890003E
:101A840060E07BFF60067A03792D80047A03793362
:101A9400121BD7121EC0EF8EF0120A091AB802FDEB
:101AA4001AC422DD1ACA629D1ACDA25D1ABAC23DB9
:101AB40000001A828000900060E0045401F080BEAF
:0B1AC400900060E0FF227F00227F0006
:011ACF0022F4
:090A360090001AE075F00584F04F
:100A3F00E4900052F0A3F07BFF7A037939121A1871
:100A4F00121EC0900054EEF0A3EFF0BE6206BF9DE1
:100A5F00037F8F22900054E0FEA3E0FF64DD70035C
:100A6F00EE6422605DBEC20BBF3D08900052E004F1
:100A7F005403F0900054E0B4020EA3E0B4FD0990CB
:100A8F000052E024035403F0E4900000F090005271
:100A9F00E014601214601714601C240370A27BFF13
:100AAF007A03794780167BFF7A037957800E7BFF95
:100ABF007A03796780067BFF7A037977121BD70257
:100ACF000A4F900052E0FFA3F09000527401F0EF34
:100ADF006069121EC0900054EEF0A3EFF0BE6206E4
:100AEF00BF9D037F8F22900054E0FEA3E0FF64DDE3
:100AFF007003EE64226044BEC20BBF3D08900052EB
:100B0F00E0045401F0900054E0B4020DA3E0B4FDF2
:100B1F0008900052E0045401F0E4900000F09000BF
:100B2F0052E014600B0470AA7BFF7A03798780066A
:100B3F007BFF7A037998121BD78097900053E0FFC1
:100B4F00900052E025E025E0FEEF4EA3F09000521A
:100B5F007402F0121EC0900054EEF0A3EFF0BE62CC
:100B6F0006BF9D037F8F22900054E0FEA3E0FF6439
:100B7F00DD7003EE64226067BEC216BF3D139000A6
:100B8F0052E02401FFE433FE7C007D03120978ED6F
:100B9F00F0900054E0B40218A3E0B4FD139000529B
:100BAF00E02402FFE433FE7C007D03120978EDF0B0
:100BBF00E4900000F0900052E014600F14601424D1
:100BCF000270907BFF7A0379A9800E7BFF7A0379FD
:100BDF00BA80067BFF7A0379CB121BD7020B629088
:100BEF000053E0FF900052E033333354F8FEEF4EE2
:030BFF00FFA3F061
:010C020022CF
:0B05CE00900052EBF0A3EAF0A3E9F06C
:1005D900E490005CF0A3F0A3F0A3F07B017A00792A
:1005E900557D3F120DCA121EC090005EEEF0A3EFBA
:1005F900F064DD7003EE642270030207D790005E99
:10060900E0FCA3E0FDBC6206BD9D037F0022BCC2E5
:100619000BBD3D0890005CE02401801290005EE073
:10062900B40218A3E0B4FD1390005CE02405FFE4D4
:1006390033FE7C007D06120978EDF090005CE01431
:1006490060401460611470030206D314700302063B
:10065900F61470030207192405600302073A121BF6
:100669002990005BE02FFFE433FE90005DE07C0001
:100679002FFFEC3EFE7D3C12097890005BEDF00205
:10068900073A121B2990005AE02FFFE433FE90002D
:100699005DE07C002FFFEC3EFE7D3C120978900066
:1006A9005AEDF002073A121B29900059E02FFFE496
:1006B90033FE90005DE07C002FFFEC3EFE7D1812BA
:1006C9000978900059EDF002073A121B299000565B
:1006D900E02FFFE433FE90005DE07C002FFFEC3E4D
:1006E900FE7D1F120978900056EDF08044121B29F7
:1006F900900057E02FFFE433FE90005DE07C002F6F
:10070900FFEC3EFE7D0C120978900057EDF0802138
:10071900121B29900058E02FFFE433FE90005DE0A2
:100729007C002FFFEC3EFE7D64120978900058EDA5
:10073900F090005CE0700F90006374FFF0A3740305
:10074900F0A374E5806290005CE0B4010F9000634F
:1007590074FFF0A37403F0A374EE804C90005CE086
:10076900B4020F90006374FFF0A37403F0A374F74D
:10077900803690005CE0B4030F90006374FFF0A32F
:100789007404F0A37400802090005CE0900063B4CE
:10079900040C74FFF0A37404F0A37409800A74FFB5
:1007A900F0A37404F0A37412F078667C007D017BD9
:1007B900017A0079557E007F071208D890006D7480
:1007C90003F07BFF7A0379DC120C300205EFE49029
:1007D9000000F0121A7490005CEFF0601C90005257
:1007E900E0FBA3E0FAA3E0F8AC02AD037B017A00D9
:0E07F90079557E007F071208D890005CE0FF63
:0108070022CE
:10147F007B017A00790C7D3F120DCA900004E07059
:10148F0068900012E070627BFF7A04791BFDFC12FA
:10149F0017887A04792B121783A2A0121ED07A0410
:1014AF007936121783A2A1121ED07BFF7A047941DD
:1014BF00E4FDFC121788A2A2121ED07BFF7A0479DA
:1014CF004CE4FDFC121788A2A3121ED07BFF7A04F6
:1014DF007957E4FDFC121788A2A4121ED07BFF7A65
:1014EF00047962E4FDFC121788900012E060047F1B
:0F14FF00008006900004E004FF900004EFF0224C
:10118B00900001E0B4A21BA3E0B45D1690001BE03D
:10119B00FF30E0047E0080027E01EF54FE4E900093
:1011AB001BF07A047976121C61EF601CE49000004E
:1011BB00F090001BE030E00654FEFF02126D900031
:1011CB001BE04401FF02126D7A04797B121C61EF64
:1011DB00601AE4900000F090001BE030E10554FD34
:1011EB00FF800790001BE04402FF80767BFF7A04B0
:1011FB0079807D04121C65EF601AE4900000F0907A
:10120B00001BE030E20554FBFF800790001BE0441D
:10121B0004FF804E7BFF7A0479857D04121C65EFF9
:10122B00601AE4900000F090001BE030E30554F7E7
:10123B00FF800790001BE04408FF80267BFF7A04A9
:10124B00798A7D04121C65EF601DE4900000F0901C
:10125B00001BE030E40554EFFF800790001BE044D7
:08126B0010FF90001BEFF022C0
:10161C007FA412000E7FA412000E7C037DE8120939
:10162C0078D3ED941EEC940040047F0180027F007F
:10163C0090001CE054FE4FF078527C007D017B0141
:10164C007A00790C7E007F071208D87A007905128F
:10165C0013E7EF90001C6006E04402F08004E054B5
:10166C00FDF078527C007D017B017A00790C7E00C4
:10167C007F071208D87A0079131213E7EF90001C39
:0C168C006005E04404F022E054FBF02272
:0E0F7400900052EFF0A3EDF0A3EAF0A3EBF033
:100F8200798090004CE05AFCA3E05BFD4C701A9013
:100F92000052E014FFF87401088002C333D8FCFF4A
:100FA20090001BE05FF9021080900052E01425E0EF
:100FB200FB7E007401A803088005C333CE33CED86C
:100FC200F96D7002EC6E703590001CE030E0179005
:100FD2000053E0FF900003E05F60047F0080027F27
:100FE20001A907021080900053E0FF900003E05F28
:100FF20060047F0180027F00A9070210807E0074D6
:1010020002A803088005C333CE33CED8F9FF90007F
:1010120054E0FCA3E0FD90004CE05CFCA3E05DFD2D
:101022006F7002EC6E701D90001CE030E150900079
:1010320053E0FF900003E05F60047F0180027F00C5
:10104200A907803A900052E01425E0FF7E00740365
:10105200A807088005C333CE33CED8F96D7002ECF1
:101062006E701B90001CE030E214900053E0FF9081
:101072000003E05F60047F0180027F00A907AF01E7
:01108200224B
:101273007B037A007D017F01120F7490004FEFF022
:1012830030E707A2A0E433FF800790004FE054014A
:10129300FFEF24FF92A07B0C7A007D027F02120FE6
:1012A3007490004FEFF030E707A2A1E433FF80070B
:1012B30090004FE05401FFEF24FF92A17B307A00AE
:1012C3007D047F03120F7490004FEFF030E707A205
:1012D300A2E433FF800790004FE05401FFEF24FFA7
:1012E30092A27BC07A007D087F04120F7490004F96
:1012F300EFF030E707A2A3E433FF800790004FE04D
:101303005401FFEF24FF92A37B007A037D107F0536
:10131300120F7490004FEFF030E707A2A4E433FFFD
:0F132300800790004FE05401FFEF24FF92A422B7
:10194D0090001AE024FB603714603B24EDB40A00CC
:10195D00505190196D75F003A4C58325F0C583739F
:10196D0002199A02199A0219AA0219B00219B002A3
:10197D00199A02199A02199A02199A02199C22901F
:10198D00001A7406F02290001A7405F02280079058
:10199D00001A741EF02290001AE004F02290001A32
:0419AD007419F02297
:1019B10090001AE024FB603714603B24EDB40A0068
:1019C10050519019D175F003A4C58325F0C58373D7
:1019D100021A07021A05021A05021A14021A14023F
:1019E10019FE021A05021A05021A05021A052290A9
:1019F100001A7406F02290001A7405F02290001A61
:101A01007422F022800790001A741BF02290001AB1
:041A1100E014F022CB
:101B8100121EC0EF4E604EEF8EF0120A091BD302F7
:101B9100FD1BA222DD1BB5629D1BD0C23D00001BB7
:101BA100D690001AE0FF602DC394AA5028EF75F07B
:101BB10005A4F02290001AE0FF700304F022EFB4B4
:101BC1000103E48005EF75F0058490001AF022020C
:051BD100194D1219B1CD
:011BD60022EC
:1000260090001AE01209E3006D00009D0100A90589
:10003600011F0600B51900E41A01011B012B1E0160
:10004600871F01E92002492102A92200C17D00F093
:1000560082010D8701379601939B01F5A00255A5F4
:1000660002B4AA000002FF90006374FFF0A37404B8
:10007600F0A37498F078667C007D017B017A0079A4
:100086000C7E007F071208D890006D7403F07BFF8A
:100096007A04798F020C30120C037BFF7A0479A163
:1000A600020318120C037BFF7A0479B202031812BA
:1000B6000C037BFF7A0479C302031890001AE075DB
:1000C600F00584F07B017A00790C1205CEEF7003FF
:1000D60002031B7B017A00790C7D37021083120C18
:1000E600037BFF7A0479D402031890001AE075F0B6
:1000F6000584F07B017A007905801B120C037BFFD7
:100106007A0479E502031890001AE075F00584F088
:100116007B017A0079130205CE120C037BFF7A0469
:1001260079F6020318120C037BFF7A05790702039E
:1001360018120A3690004FEFF030E70302031BE077
:10014600F95403FD90004CE0FAA3E054FCFBEAFFEF
:10015600EB4D90004CCFF0A3EFF0E913135401FFE1
:10016600900003E054FE4FF090004FE030E40302AD
:10017600031B1313135401FF90001BE054FE4FF0B2
:1001860022120C037BFF7A057918020318120A362D
:1001960090004FEFF030E70302031BE0FD540375B8
:1001A600F004A4FF90004CE0FAA3E054F3FBEA4508
:1001B600F0FEEB4FFF90004CEEF0A3EFF0EDC31313
:1001C6005402FF900003E054FD4FF090004FE030E2
:1001D600E40302031B13135402FF90001BE054FDBB
:1001E6004FF022120C037BFF7A05792902031812BD
:1001F6000A3690004FEFF030E70302031BE0FD5490
:100206000375F010A4FF90004CE0FAA3E054CFFB76
:10021600EA45F0FEEB4FFF90004CEEF0A3EFF0ED59
:100226005404FF900003E054FB4FF090004FE03081
:10023600E40302031BC3135404FF90001BE054FBAA
:100246004FF022120C037BFF7A05793A020318124B
:100256000A3690004FEFF030E70302031BE0FD542F
:100266000375F040A4FF90004CE0FAA3E0543FFB76
:10027600EA45F0FEEB4FFF90004CEEF0A3EFF0EDF9
:1002860025E05408FF900003E054F74FF090004F2C
:10029600E030E40302031B5408FF90001BE054F710
:1002A6004FF022120C037BFF7A05794B8064120A09
:1002B6003690004FEFF020E75CE0FD5403FE90001F
:1002C6004CE054FCFAA3E0FBEA4EFFEB90004CCF67
:1002D600F0A3EFF0ED25E025E05410FF900003E0D9
:1002E60054EF4FF090004FE020E42A25E05410FF31
:1002F60090001BE054EF4FF0227BFF7A05795CE417
:10030600FDFC1217887A057981121A157BFF7A058A
:06031600798F121BD722B3
:101DFA007BFF7A05799FE4FDFC1217887A0579B78B
:101E0A00121A157BFF7A0579BE121BD77FD07E077F
:031E1A00021D01A5
:101C9A00121E9A120006121D59121E3C121EF4122E
:101CAA001DFA7B017A00790C7D7F12108390004C1B
:101CBA00E4F0A374E4F0E4900003F0900042F090A2
:041CCA00001BF022E9
:101E5700121C9A12147F12118B12161C1212731273
:071E67001B8112002680EC34
:0300000002150ED8
:0C150E00787FE4F6D8FD758107021555C2
:10080800E709F608DFFA8046E709F208DFFA803ED2
:1008180088828C83E709F0A3DFFA8032E309F608BF
:10082800DFFA8078E309F208DFFA807088828C8327
:10083800E309F0A3DFFA806489828A83E0A3F608DB
:10084800DFFA805889828A83E0A3F208DFFA804CB5
:1008580080D280FA80C680D4806980F2803380108C
:1008680080A680EA809A80A880DA80E280CA8033F5
:1008780089828A83ECFAE493A3C8C582C8CCC5836D
:10088800CCF0A3C8C582C8CCC583CCDFE9DEE7803D
:100898000D89828A83E493A3F608DFF9ECFAA9F0BC
:1008A800EDFB2289828A83ECFAE0A3C8C582C8CC12
:1008B800C583CCF0A3C8C582C8CCC583CCDFEADE2B
:1008C800E880DB89828A83E493A3F208DFF980CC8D
:1008D80088F0EF60010E4E60C388F0ED2402B40486
:1008E8000050B9F582EB2402B4040050AF2323452D
:0608F800822390085873F2
:1008FE00BB010689828A83E0225002E722BBFE02F8
:09090E00E32289828A83E493222A
:10091700BB010CE58229F582E5833AF583E0225095
:1009270006E92582F8E622BBFE06E92582F8E222DF
:0D093700E58229F582E5833AF583E49322F9
:10094400F8BB010DE58229F582E5833AF583E8F0E9
:10095400225006E92582C8F622BBFE05E92582C895
:02096400F2227D
:10096600EF8DF0A4A8F0CF8CF0A428CE8DF0A42EA5
:02097600FE225F
:10097800BC000BBE0029EF8DF084FFADF022E4CC63
:10098800F875F008EF2FFFEE33FEEC33FCEE9DEC2C
:10099800984005FCEE9DFE0FD5F0E9E4CEFD22ED72
:1009A800F8F5F0EE8420D21CFEADF075F008EF2FBC
:1009B800FFED33FD4007985006D5F0F222C398FDAD
:0509C8000FD5F0EA224A
:1009CD00C5F0F8A3E028F0C5F0F8E58215827002B5
:0609DD001583E038F02252
:1009E300D083D082F8E4937012740193700DA3A3A3
:1009F30093F8740193F5828883E4737402936860B7
:060A0300EFA3A3A380DFB6
:100A0900D083D082F8E4937012740193700DA3A37C
:100A190093F8740193F5828883E473740293B5F0B3
:0D0A2900067403936860E9A3A3A3A380D81B
:10151A00021E57E493A3F8E493A34003F68001F272
:10152A0008DFF48029E493A3F85407240CC8C333D2
:10153A00C4540F4420C8834004F456800146F6DFA1
:10154A00E4800B010204081020408090159AE47E82
:10155A00019360BCA3FF543F30E509541FFEE49396
:10156A00A360010ECF54C025E060A840B8E493A35D
:10157A00FAE493A3F8E493A3C8C582C8CAC583CA88
:10158A00F0A3C8C582C8CAC583CADFE9DEE780BE40
:01161B0000CE
:00000001FF
