:1005070048656C6C6F210046726F6D204E475858D6
:050517004655532100D0
:03059600013F0022
:10051C00E4FDFCC3ED9FEC9E50070DBD00010C806B
:01052C00F2DC
:01052D0022AB
:0404A800AB07AA06EE
:1004AC00E4F508F509F583F5827C007D0CAF03AE0D
:1004BC000212008EC3E5829FE5839E5003A380E960
:0104CC00220D
:0F052E00BF0104D2A8D288EF7004C2A8C28822ED
:0F053D00BF0104D28AD2AAEF7004C28AC2AA22D6
:10047D00EF601424FE601A14601A14601A14600AD6
:10048D0024047016D2A922C2A922758A67758CFC24
:0B049D0022D28C22C28C224389012253
:0A001900BF0103D38001C392AF22A0
:060369008B228A23892487
:10036F00E528C3940150037F0022AF29E52814FE2E
:10037F00EFD39E5026AB25AA26A9278F827583001F
:10038F0012003FFEAB22AA23A9248F82758300128D
:0D039F00003F6E60037F00220F80D17F01C0
:0103AC00222E
:0603E9008B2A8A2B892CEF
:1003EF00E530C39401402AAF31E53014FEEFD39EC0
:1003FF00501FAB2DAA2EA92F8F8275830012003F9D
:10040F00AB2AAA2BA92C8F8275830012006C0F8048
:01041F00D804
:0104200022B9
:080588008F993099FDC2992200
:0A02AA008B408A4189428C438D4449
:1002B400E544B4FF21E543B4FF1CAB40AA41A94285
:1002C400120026FF604112058874012542F542E4BC
:1002D4003541F54180E47D017C00D3ED9544E5434F
:1002E4006480F8EC648098501EAB40AA41A9427423
:1002F400FF2DF58274FF3CF58312003FFF12058841
:070304000DBD00010C80D3C8
:01030B0022CF
:100003007F01120019D2AC438920758DFD758BFDDC
:06001300759850D28E2208
:10042100ED6004E53F70037F0022EDC3953F50046A
:10043100AF058002AF3FAD07752D00752E00752FFA
:0F0441003A8D30E4F5311203E9E4F53F7F0122F3
:03002300020234A2
:10023400C0E0C0F0C0D075D000C000C003C004C08E
:0502440005C006C00723
:1002490030984BAB997441D39B5005EB945A402499
:100259007430D39B5005EB94394019EBB45F03D349
:100269008001C3400F7461D39B5005EB947A40041D
:10027900C298801AE53F2401FFE433FE7C007D0625
:0E0289001200A08D3F7439253FF8A603C298DD
:10029700D007D006D005D004D003D000D0D0D0F0FE
:0302A700D0E03272
:0C056A00D2A77F037E0012051CC2A7224E
:090576008F80C2A6C2A502056A2D
:09057F008F80D2A6C2A502056A14
:0A030C008B1B8A1C891D8C1E8D1F9F
:10031600E4F520F521C3E51E64809480501CAB1BD8
:10032600AA1CA91D120026FF603812057F7401253C
:100336001DF51DE4351CF51C80E4C3E521951FE57C
:1003460020951E501DAB1BAA1CA91D852182852048
:100356008312003FFF12057F0521E52170DC052091
:0203660080D83D
:010368002272
:08045000AD19AC18AF17AE1690
:10045800AB05AA048F828E83E58245837007EB245F
:1004680080FF120576E582640145837007EB24C09E
:05047800FF12057622D1
:0800F5008B108A1189128D1392
:1000FD00E4F51AE515B401057F01120576E51464E2
:10010D0001706DE51324FFFFE434FFFEE5192FFFA9
:10011D00E5183EFED3EF940FEE64809480501012DC
:10012D000450AB10AA11A912E513FD7C008068C321
:10013D0074109519F51AE4FDFC120454AB10AA11B4
:10014D00A912E51AFD7C0012030CE5174516704A3D
:10015D00FDFC7F01FE120458AB107E00E512251A3E
:10016D00F9EE3511FAC3E513951AFDE49EFC8027CF
:10017D00120450AB10AA11A912C374109519FFE403
:10018D009518FEAD137C00C3EF9D7480F86E9850EA
:0A019D0006AC06AD07800012030C4B
:0101A7002235
:1004CD007BFF7A057907E4F50CF50DF50EF50F7D3B
:0104DD000519
:1004DE00E4F514F515850C16850D17850E18850F88
:0404EE00190200F5FA
:1004F200E4F5147515018536168537178538188584
:0505020039190200F5AB
:0F054C007F0C1205767F381205767F0302057645
:0605900012000302054CFD
:1003AD001204CD7BFF7A05790E750C00750D01E4F5
:1003BD00F50EF50F7D0D1204DE7FD07E071204A819
:1003CD0012054C1204CD7BFF7A05790E750C007564
:0C03DD000D01E4F50EF50F7D0D0204DEAD
:0F055B001205901203AD7FE87E031204A880F70B
:030000000201A852
:0C01A800787FE4F6D8FD7581440201EF79
:10002600BB010689828A83E0225002E722BBFE02D8
:09003600E32289828A83E493220B
:10003F00BB010CE58229F582E5833AF583E0225076
:10004F0006E92582F8E622BBFE06E92582F8E222C0
:0D005F00E58229F582E5833AF583E49322DA
:10006C00F8BB010DE58229F582E5833AF583E8F0CA
:10007C00225006E92582C8F622BBFE05E92582C876
:02008C00F2225E
:10008E00EF8DF0A4A8F0CF8CF0A428CE8DF0A42E86
:02009E00FE2240
:1000A000BC000BBE0029EF8DF084FFADF022E4CC44
:1000B000F875F008EF2FFFEE33FEEC33FCEE9DEC0D
:1000C000984005FCEE9DFE0FD5F0E9E4CEFD22ED53
:1000D000F8F5F0EE8420D21CFEADF075F008EF2F9D
:1000E000FFED33FD4007985006D5F0F222C398FD8E
:0500F0000FD5F0EA222B
:1001B40002055BE493A3F8E493A34003F68001F201
:1001C40008DFF48029E493A3F85407240CC8C3334C
:1001D400C4540F4420C8834004F456800146F6DF1B
:1001E400E4800B0102040810204080900596E47E10
:1001F400019360BCA3FF543F30E509541FFEE49310
:10020400A360010ECF54C025E060A840B8E493A3D6
:10021400FAE493A3F8E493A3C8C582C8CAC583CA01
:10022400F0A3C8C582C8CAC583CADFE9DEE780BEB9
:010599000061
:00000001FF
