:100273000232001F0208000C022A07E7022C003793
:100283000230003B022E0017110A444154453A2024
:1002930059595959204D4D204444000F1B54494D81
:1002A300453A2048483A4D4D3A5353001A34FFFF1C
:1002B300001F001C001F001E001F001E001F001F48
:0802C300001E001F001E001FB9
:070415001204D07F147E00E9
:04041C00AB07AA067A
:100420009000007C007D0CAF03AE02120030C3E5EB
:0A043000829FE5839E5003A380E93C
:01043A00229F
:0C04C400D2977F037E0012041CC2972216
:0904D0008FA0C295C2960204C47B
:0904D9008FA0D295C2960204C462
:0A034E008B4E8A4F89508C518D525E
:10035800E4F553F554C3E5549552E5539551501DB2
:10036800AB4EAA4FA950855482855383120003FFD0
:0D0378001204D90554E55470DC055380D8FB
:010385002255
:1003EE008E4E8F4F8C508D51E54F454E7008E55116
:1003FE002480FF1204D0E54F6401454E7008E5518C
:07040E0024C0FF1204D022FC
:0F04B5007F0C1204157F381204157F010204D04A
:1000CD00AE2AAF2B7C007D0A120042ED2430F513D1
:1000DD00AE2AAF2B7C007D0A1200427C007D0A12F5
:1000ED000042ED2430F512AE2AAF2B7C007D641258
:1000FD0000427C007D0A120042ED2430F511AE2A3B
:10010D00AF2B7C037DE81200427C007D0A12004279
:10011D00ED2430F510AE08AF097C007D0A120042C7
:10012D00ED2430F516AE08AF097C007D0A120042B1
:10013D007C007D0A120042ED2430F515AE32AF334E
:10014D007C007D0A120042ED2430F519AE32AF333A
:10015D007C007D0A1200427C007D0A120042ED24D3
:04016D0030F518222F
:1001FD00AE2EAF2F7C007D0A120042ED2430F52289
:10020D00AE2EAF2F7C007D0A1200427C007D0A12BB
:10021D000042ED2430F521AE30AF317C007D0A1265
:10022D000042ED2430F525AE30AF317C007D0A1251
:10023D0000427C007D0A120042ED2430F524AE2CE4
:10024D00AF2D7C007D0A120042ED2430F528AE2C36
:10025D00AF2D7C007D0A1200427C007D0A12004207
:06026D00ED2430F527220C
:1003BD00E4FDFCFFFE1203EE1200CD7B007A007906
:1003CD000A7D107C0012034EE4FDFC7F01FE12033A
:1003DD00EE1201FD7B007A00791B7D0E7C0002037D
:0103ED004EC1
:10038600AE2AAF2B7C007D64120042ED4C7011AE9C
:100396002AAF2B7C017D90120042ED4C7015800F28
:1003A600AE2AAF2B7C007D04120042ED4C7004FE99
:0703B6007F0122E4FEFF229B
:0904E200052BE52B7002052A220E
:10043B00C3E509940CE50864809480400A1204E239
:10044B00750800750901220509E5097002050822E6
:1002CC00E50925E02434F8E6FE08E6FBAA06C3E5BA
:1002DC00099402E50864809480400C120386EF4E6A
:1002EC0060050BBB00010AC3E5339BEA6480F8E5AB
:1002FC0032648098400A12043B7532007533012237
:08030C000533E53370020532F0
:0103140022C6
:10045B00C3E52F9417E52E648094804008E4F52EB5
:0E046B00F52F0202CC052FE52F7002052E2280
:10047900C3E531943BE530648094804008E4F5306D
:0E048900F53102045B0531E5317002053022C9
:10049700C3E52D943BE52C648094804008E4F52C5B
:0E04A700F52D020479052DE52D7002052C229D
:100315001204B5752E00752F1775300075313B75B4
:100325002C00752D37753200753303750800750976
:1003350002752A07752BD41203BD1203BD1204974B
:090345007F147E0512041C80F1F6
:0300000002017189
:0C017100787FE4F6D8FD7581540201B8D7
:10000300BB010CE58229F582E5833AF583E02250B2
:1000130006E92582F8E622BBFE06E92582F8E222FC
:0D002300E58229F582E5833AF583E4932216
:10003000EF8DF0A4A8F0CF8CF0A428CE8DF0A42EE4
:02004000FE229E
:10004200C2D5EC30E709B2D5E4C39DFDE49CFCEED9
:1000520030E715B2D5E4C39FFFE49EFE120078C3D9
:10006200E49DFDE49CFC800312007830D507C3E4D4
:060072009FFFE49EFE2248
:10017D00020315E493A3F8E493A34003F68001F280
:10018D0008DFF48029E493A3F85407240CC8C33383
:10019D00C4540F4420C8834004F456800146F6DF52
:1001AD00E4800B0102040810204080900273E47E6D
:1001BD00019360BCA3FF543F30E509541FFEE49347
:1001CD00A360010ECF54C025E060A840B8E493A30E
:1001DD00FAE493A3F8E493A3C8C582C8CAC583CA39
:1001ED00F0A3C8C582C8CAC583CADFE9DEE780BEF1
:0102CB000032
:10007800BC000BBE0029EF8DF084FFADF022E4CC6C
:10008800F875F008EF2FFFEE33FEEC33FCEE9DEC35
:10009800984005FCEE9DFE0FD5F0E9E4CEFD22ED7B
:1000A800F8F5F0EE8420D21CFEADF075F008EF2FC5
:1000B800FFED33FD4007985006D5F0F222C398FDB6
:0500C8000FD5F0EA2253
:00000001FF
