:1002F600020A000002080000020F0000010D0001C2
:050306000C00010E01D6
:10030C00E4FDFCC3ED9FEC9E50070DBD00010C807D
:01031C00F2EE
:01031D0022BD
:04026300AB07AA0635
:10026700E4F583F5827C007D0CAF03AE021201DC5E
:0C027700C3E5829FE5839E5003A380E94D
:010283002258
:1002C200EF14600D14600D14600D2403700BC297BF
:0A02D20022C29622C29522C2942295
:10021B00E4FF2093040FBF000020920474022FFF11
:10022B0020910474042FFF20900474082FFF7E008C
:04023B00EF540FFF6E
:01023F00229C
:10019A00E4FBFAF50AF50BAF031202C27F0A7E00EE
:1001AA0012030C12021BEB25E025E0FDEFA805085F
:1001BA008005C333CE33CED8F9250BF50BEE350ABD
:1001CA00F50A0BBB00010AEB64044A70CAAE0AAF17
:0101DA000B19
:0101DB002201
:10028400D2AFD28AD2AAD288D2A8D2A9438901D223
:10029400A7D2A6E4F50FF510F508F509F50CD28CF4
:0102A4002237
:0A032D00120284E4F58075A0FF229F
:10024000EF8EF01201EE025918E7025630CF025C31
:100250007A850000025FB2A022B2A122B2A222756A
:03026000A0FF22DA
:03000B000202DC12
:1002DC00C0E0C0D0B2A7758CFC758A67E50DC394DD
:0A02EC00325002050DD0D0D0E032F0
:0300130002014D9A
:10014D00C0E0C0F0C083C082C0D075D000C000C078
:10015D0002C003C004C005C006C007E50E70047FD1
:10016D000180027F008F0EE50E24FF92A47FF47EA6
:10017D0001120263D007D006D005D004D003D002FF
:0D018D00D000D0D0D082D083D0F0D0E032AE
:1002A500E50E701812019AE50A30E402B2A0E50ADB
:0D02B50030E502B2A1E50A30E602B2A22255
:03000300020016E2
:10001600C0E0C0F0C083C082C0D075D000C000C0B0
:0300260006C0070A
:10002900E4FEE50E70030200B0AF0D758CFC758A15
:1000390067750D00050CB2A6C3EF9432EE9400402B
:100049000B750CFE750F00751000805BD3E50C6411
:1000590080F8748098502DE50C6480949F5025C3D6
:10006900EF9402EE9400403F741F950CFF7E0074DC
:1000790001A807088005C333CE33CED8F94210EE64
:10008900420F8023C3E50C648094A0401A850F08B1
:10009900851009750F00751000750C00C2A5AF0910
:0700A900AE08120240D2A5CF
:1000B000D007D006D000D0D0D082D083D0F0D0E00E
:0100C000320D
:0F031E0012032D1202A57F2C7E0112026380F4C0
:030000000200C13A
:0C00C100787FE4F6D8FD7581100201087C
:1001DC00EF8DF0A4A8F0CF8CF0A428CE8DF0A42E37
:0201EC00FE22F1
:1001EE00D083D082F8E4937012740193700DA3A3A0
:1001FE0093F8740193F5828883E473740293B5F0D7
:0D020E00067403936860E9A3A3A3A380D83E
:1000CD0002031EE493A3F8E493A34003F68001F228
:1000DD0008DFF48029E493A3F85407240CC8C33334
:1000ED00C4540F4420C8834004F456800146F6DF03
:1000FD00E4800B01020408102040809002F6E47E9B
:10010D00019360BCA3FF543F30E509541FFEE493F7
:10011D00A360010ECF54C025E060A840B8E493A3BE
:10012D00FAE493A3F8E493A3C8C582C8CAC583CAE9
:10013D00F0A3C8C582C8CAC583CADFE9DEE780BEA1
:01030B0000F1
:00000001FF
