:10033E00020A000002080000020F0000010D000179
:05034E000C00010E018E
:10035400E4FDFCC3ED9FEC9E50070DBD00010C8035
:01036400F2A6
:010365002275
:0402FD00AB07AA069B
:10030100E4F583F5827C007D0CAF03AE021201633C
:0C031100C3E5829FE5839E5003A380E9B2
:01031D0022BD
:0F036600BF0104D2A8D288EF7004C2A8D28822A7
:0F037500BF0104D28AD2AAEF7004C28AC2AA22A0
:10023D00EF601424FE601A14601A14601A14600A18
:10024D0024047016D2A922C2A922758A67758CFC66
:0B025D0022D28C22C28C224389012295
:10020E00EF14601014601614601C24037020C29743
:10021E00D2968004D297C296D295D29422D297D2F9
:0F022E0096C295D29422D297D296D295C294229C
:10029300E4FF2093040FBF000020920474022FFF99
:1002A30020910474042FFF20900474082FFF7E0014
:0402B300EF540FFFF6
:0102B7002224
:1001A200E4FDFCF50AF50BAF0512020E120293ED07
:1001B20025E025E0FBEFA803088005C333CE33CE4C
:1001C200D8F9420BEE420A0DBD00010CED64044C5D
:0601D20070D5AE0AAF0B70
:0101D8002204
:10026800D2A7D2A6E4F50FF510F508F509F50CD2DA
:10027800AF7F0112036612037512023D7F0412025A
:0B0288003D7F0212023D7F0502023D97
:0A038400120268E4F58075A0FF2264
:1002B800EF8EF012017502D118E702CE30CF02D4CA
:1002C8007A85000002D7B2A022B2A122B2A222757A
:0302D800A0FF2262
:03000B0002031ECF
:10031E00C0E0C0D075D000C007B2A77F0512023D65
:10032E00E50DC394435002050DD007D0D0D0E03276
:030013000202DB0B
:1002DB00C0E0C0D075D000C007E50E70047F018070
:1002EB00027F008F0EE50E24FF92A4D007D0D0D052
:0202FB00E032EF
:1001D900E50E70301201A28E838F82E58230E10232
:1001E900B2A0E58230E602B2A1E58330E302B2A211
:1001F9001201A2EFB5820DEEB583097FE87E0312E5
:04020900035480EC2E
:01020D0022CE
:03000300020016E2
:10001600C0E0C0F0C083C082C0D075D000C000C0B0
:0B00260002C003C004C005C006C007F4
:10003100E4FCE50E70030200BEAD0D7F0512023D2A
:10004100750D00050CB2A6C3ED9443EC9400400B72
:10005100750CFE750F007510008062D3E50C64808D
:10006100F8748098502DE50C6480949F5025C3ED61
:100071009402EC94004046741F950CFF7E007401BD
:10008100A807088005C333CE33CED8F94210EE421B
:100091000F802AC3E50C648094A04021850F088558
:1000A1001009750F00751000750C00C2A57FE87E60
:0D00B100031202FDAF09AE081202B8D2A57D
:1000BE00D007D006D005D004D003D002D000D0D0C7
:0900CE00D082D083D0F0D0E032E2
:08038E001203841201D980FB67
:030000000200D724
:0C00D700787FE4F6D8FD75811002011E50
:10016300EF8DF0A4A8F0CF8CF0A428CE8DF0A42EB0
:02017300FE226A
:10017500D083D082F8E4937012740193700DA3A319
:1001850093F8740193F5828883E473740293B5F050
:0D019500067403936860E9A3A3A3A380D8B8
:1000E30002038EE493A3F8E493A34003F68001F2A2
:1000F30008DFF48029E493A3F85407240CC8C3331E
:10010300C4540F4420C8834004F456800146F6DFEC
:10011300E4800B010204081020408090033EE47E3B
:10012300019360BCA3FF543F30E509541FFEE493E1
:10013300A360010ECF54C025E060A840B8E493A3A8
:10014300FAE493A3F8E493A3C8C582C8CAC583CAD3
:10015300F0A3C8C582C8CAC583CADFE9DEE780BE8B
:0103530000A9
:00000001FF
