:10030B00020A000002080000020F0000010D0001AC
:05031B000C00010E01C1
:10032100E4FDFCC3ED9FEC9E50070DBD00010C8068
:01033100F2D9
:0103320022A8
:04029200AB07AA0606
:10029600E4F583F5827C007D0CAF03AE021201DC2F
:0C02A600C3E5829FE5839E5003A380E91E
:0102B2002229
:10021B00EF14601314601914601C24037020D29423
:10022B00D295D296C29722D294D295C296D29722C9
:0F023B00D294C2958004C294D295D296D29722C3
:10024A00E4FF2093040FBF000020920474022FFFE2
:10025A0020910474042FFF20900474082FFF7E005D
:04026A00EF540FFF3F
:01026E00226D
:10019A00E4FBFAF50AF50BAF0312021B7F0A7E0095
:1001AA0012032112024AEB25E025E0FDEFA805081B
:1001BA008005C333CE33CED8F9250BF50BEE350ABD
:1001CA00F50A0BBB00010AEB64044A70CAAE0AAF17
:0101DA000B19
:0101DB002201
:1002B300D2AFD28AD2AAD288D2A8D2A9438901D2F4
:1002C300A7D2A6E4F50FF510F508F509F50CD28CC5
:0102D3002208
:0A0342001202B3E4F58075A0FF225B
:10026F00EF8EF01201EE028818E7028530CF028B75
:10027F007A850000028EB2A022B2A122B2A222750C
:03028F00A0FF22AB
:03000B000202F1FD
:1002F100C0E0C0D0B2A7758CFC758A67E50DC394C8
:0A030100325002050DD0D0D0E032DA
:0300130002014D9A
:10014D00C0E0C0F0C083C082C0D075D000C000C078
:10015D0002C003C004C005C006C007E50E70047FD1
:10016D000180027F008F0EE50E24FF92A47FF47EA6
:10017D0001120292D007D006D005D004D003D002D0
:0D018D00D000D0D0D082D083D0F0D0E032AE
:1002D400E50E701812019AE50A30E402B2A0E50AAC
:0D02E40030E502B2A1E50A30E602B2A22226
:03000300020016E2
:10001600C0E0C0F0C083C082C0D075D000C000C0B0
:0300260006C0070A
:10002900E4FEE50E70030200B0AF0D758CFC758A15
:1000390067750D00050CB2A6C3EF9432EE9400402B
:100049000B750CFE750F00751000805BD3E50C6411
:1000590080F8748098502DE50C6480949F5025C3D6
:10006900EF9402EE9400403F741F950CFF7E0074DC
:1000790001A807088005C333CE33CED8F94210EE64
:10008900420F8023C3E50C648094A0401A850F08B1
:10009900851009750F00751000750C00C2A5AF0910
:0700A900AE0812026FD2A5A0
:1000B000D007D006D000D0D0D082D083D0F0D0E00E
:0100C000320D
:0F0333001203421202D47F2C7E0112029280F438
:030000000200C13A
:0C00C100787FE4F6D8FD7581100201087C
:1001DC00EF8DF0A4A8F0CF8CF0A428CE8DF0A42E37
:0201EC00FE22F1
:1001EE00D083D082F8E4937012740193700DA3A3A0
:1001FE0093F8740193F5828883E473740293B5F0D7
:0D020E00067403936860E9A3A3A3A380D83E
:1000CD00020333E493A3F8E493A34003F68001F213
:1000DD0008DFF48029E493A3F85407240CC8C33334
:1000ED00C4540F4420C8834004F456800146F6DF03
:1000FD00E4800B010204081020408090030BE47E85
:10010D00019360BCA3FF543F30E509541FFEE493F7
:10011D00A360010ECF54C025E060A840B8E493A3BE
:10012D00FAE493A3F8E493A3C8C582C8CAC583CAE9
:10013D00F0A3C8C582C8CAC583CADFE9DEE780BEA1
:0103200000DC
:00000001FF
