:10042500023400020232000002080000022A000025
:10043500022C000002300000022E0000110A444187
:1004450054453A2059595959204D4D204444000FDF
:100455001B54494D453A2048483A4D4D3A535300AF
:0D04FF00AF35AE3412050CD286AF35AE34E9
:04050C00AB07AA0689
:100510009000007C007D0CAF03AE0212012BC3E5FE
:0A052000829FE5839E5003A380E94B
:01052A0022AE
:10059000D286D287120508C287120508C286AF35F7
:0505A000AE3402050C61
:0D05DA00120508C286C2871204FFD28722D4
:08061B00120508D286C28622F6
:1005BA00120508D2871204FFA287E4FE33FFC2861F
:0105CA00220E
:0204CF00A9077B
:1004D100E4F548F549F548F549E930E703D38001EA
:1004E100C3928712061BE925E0F90549E549700227
:0E04F1000548C39408E548940040DE0205BAB1
:0B05F300120508C28712061BD28722E7
:0B05FE00120508D28712061BD28722CC
:0903CA00EE8FF0120192E4FFFE37
:0403D3008E488F4978
:1003D700E4F54AF54BF54CF54DF54AF54B12050892
:1003E700E54D25E0F54DE54C33F54C1205BAEF42E6
:1003F7004DEE424C054BE54B7002054AC39408E5A8
:100407004A940040D8E5496401454870031205FE47
:0D041700E549454870031205F3AE4CAF4DAA
:0104240022B5
:1005A5001205907FD01204CF7F071204CFE4FF120B
:0505B50004CF0205DA8D
:100357008B368A3789381205907FD01204CFE4FF95
:100367001204CF1205DA1205081205907FD1120484
:10037700CFE4FFFE1203D3AB45AA46A9471203CA2F
:10038700AB42AA43A9441203CAAB3FAA40A94112F0
:1003970003CAE4FFFE1203D3AB3CAA3DA93E1203F6
:1003A700CAAB39AA3AA93BEE8FF01201927F017EC0
:1003B700001203D3AB36AA37A938EE8FF012019299
:0303C7000205DA52
:070552001206097F147E0070
:04055900AB07AA063C
:10055D009000007C007D0CAF03AE0212012BC3E5B1
:0A056D00829FE5839E5003A380E9FE
:010577002261
:0C05E700D2977F037E00120559C29722B4
:090609008FA0C295C2960205E71C
:090612008FA0D295C2960205E703
:0A0466008B368A3789388C398D3ABD
:10047000E4F53BF53CC3E53C953AE53B9539501D29
:10048000AB36AA37A938853C82853B831200FEFF34
:0D049000120612053CE53C70DC053B80D8EF
:01049D00223C
:10052B008E368F378C388D39E53745367008E5397F
:10053B002480FF120609E537640145367008E5395A
:07054B0024C0FF1206092283
:0F05CB007F0C1205527F381205527F010206097C
:10000300753900753A00753B08753C00753D007500
:100013003E32753F0075400075412E7542007543B1
:100023000075443075450075460075472C7B007A92
:1000330000792A120357E52AC4F854F0C8E52BC403
:10004300540F487E00540FFF7C007D0A12012BE5FC
:100053002B540F2FF52BEC3EF52AE508C4F854F08A
:10006300C8E509C4540F487E005401FF12012BE573
:1000730009540F2FF509EC3EF508E532C4F854F0A6
:10008300C8E533C4540F487E00540FFF12012BE51B
:1000930033540F2FF533EC3EF532E52EC4F854F00C
:1000A300C8E52FC4540F487E005403FF12012BE50B
:1000B3002F540F2FF52FEC3EF52EE530C4F854F0F6
:1000C300C8E531C4540F487E005403FF12012BE5E9
:1000D30031540F2FF531EC3EF530E52CC4F854F0D4
:1000E300C8E52DC4540F487E005403FF12012BE5CD
:0B00F3002D540F2FF52DEC3EF52C22B4
:1001B100AE2AAF2B7C007D0A12013DED2430F513F0
:1001C100AE2AAF2B7C007D0A12013D7C007D0A1214
:1001D100013DED2430F512AE2AAF2B7C007D641277
:1001E100013D7C007D0A12013DED2430F511AE2A5E
:1001F100AF2B7C037DE812013D7C007D0A12013D9D
:10020100ED2430F510AE08AF097C007D0A12013DE6
:10021100ED2430F516AE08AF097C007D0A12013DD0
:100221007C007D0A12013DED2430F515AE32AF336D
:100231007C007D0A12013DED2430F519AE32AF3359
:100241007C007D0A12013D7C007D0A12013DED24F6
:0402510030F518224A
:1002E100AE2EAF2F7C007D0A12013DED2430F522A8
:1002F100AE2EAF2F7C007D0A12013D7C007D0A12DB
:10030100013DED2430F521AE30AF317C007D0A1284
:10031100013DED2430F525AE30AF317C007D0A1270
:10032100013D7C007D0A12013DED2430F524AE2C07
:10033100AF2D7C007D0A12013DED2430F528AE2C55
:10034100AF2D7C007D0A12013D7C007D0A12013D2A
:06035100ED2430F5272227
:10049E00E4FDFCFFFE12052B1201B17B007A007900
:1004AE000A7D107C00120466E4FDFC7F01FE12053D
:1004BE002B1202E17B007A00791B7D0E7C00020478
:0104CE0066C7
:100578001205CB1205A512049E12000312049E7FD9
:08058800647E0012055980F1A8
:03000000020255A4
:0C025500787FE4F6D8FD75814D02029C14
:1000FE00BB010CE58229F582E5833AF583E02250B7
:10010E0006E92582F8E622BBFE06E92582F8E22200
:0D011E00E58229F582E5833AF583E493221A
:10012B00EF8DF0A4A8F0CF8CF0A428CE8DF0A42EE8
:02013B00FE22A2
:10013D00BC000BBE0029EF8DF084FFADF022E4CCA6
:10014D00F875F008EF2FFFEE33FEEC33FCEE9DEC6F
:10015D00984005FCEE9DFE0FD5F0E9E4CEFD22EDB5
:10016D00F8F5F0EE8420D21CFEADF075F008EF2FFF
:10017D00FFED33FD4007985006D5F0F222C398FDF0
:05018D000FD5F0EA228D
:10019200BB010A89828A83F0E5F0A3F0225006F7B8
:0F01A20009A7F01922BBFE06F3E5F009F31922B5
:10026100020578E493A3F8E493A34003F68001F236
:1002710008DFF48029E493A3F85407240CC8C3339E
:10028100C4540F4420C8834004F456800146F6DF6D
:10029100E4800B0102040810204080900425E47ED4
:1002A100019360BCA3FF543F30E509541FFEE49362
:1002B100A360010ECF54C025E060A840B8E493A329
:1002C100FAE493A3F8E493A3C8C582C8CAC583CA54
:1002D100F0A3C8C582C8CAC583CADFE9DEE780BE0C
:010465000096
:00000001FF
