:1001F6001414003F0006005B004F0066006D007D92
:100206000007007F006F060800BF008600DB040EB3
:0402160000000040A4
:0901CE00F808E6F580AF2DAE2C17
:0401D700AB07AA06C2
:1001DB009000007C007D0CAF03AE021200A5C3E5BE
:0A01EB00829FE5839E5003A380E984
:0101F50022E7
:040003008E288F298B
:10000700752C00752D0EE4F52AF52BC2A4C2A3C2E8
:10001700A2C3E52864809480AE28AF2950097CFFED
:100027007DFF1200A580007C007D0A1200B7AF0596
:10003700ED25E024141201CEC2A4C2A3D2A2C3E5C7
:100047002864809480AE28AF2950097CFF7DFF1279
:1000570000A580007C007D0A1200B77C007D0A1293
:1000670000B7AF05ED25E024081201CEC2A4D2A344
:10007700C2A2C3E5286480948050047F0180027F78
:1000870000EF25E0240E1201CE052BE52B700205AB
:0D0097002AC39418E52A94005003020012B9
:0100A4002239
:10021B00C3E5139414E512648094805011AF13AEB0
:0F022B00121200030513E51370E6051280E2229C
:03000000020142B8
:0C014200787FE4F6D8FD75812D0201895C
:1000A500EF8DF0A4A8F0CF8CF0A428CE8DF0A42E6F
:0200B500FE2229
:1000B700C2D5EC30E709B2D5E4C39DFDE49CFCEE64
:1000C70030E715B2D5E4C39FFFE49EFE1200EDC3EF
:1000D700E49DFDE49CFC80031200ED30D507C3E4EA
:0600E7009FFFE49EFE22D3
:10014E0002021BE493A3F8E493A34003F68001F2AA
:10015E0008DFF48029E493A3F85407240CC8C333B2
:10016E00C4540F4420C8834004F456800146F6DF81
:10017E00E4800B01020408102040809001F6E47E1A
:10018E00019360BCA3FF543F30E509541FFEE49376
:10019E00A360010ECF54C025E060A840B8E493A33D
:1001AE00FAE493A3F8E493A3C8C582C8CAC583CA68
:1001BE00F0A3C8C582C8CAC583CADFE9DEE780BE20
:01021A0000E3
:1000ED00BC000BBE0029EF8DF084FFADF022E4CCF7
:1000FD00F875F008EF2FFFEE33FEEC33FCEE9DECC0
:10010D00984005FCEE9DFE0FD5F0E9E4CEFD22ED05
:10011D00F8F5F0EE8420D21CFEADF075F008EF2F4F
:10012D00FFED33FD4007985006D5F0F222C398FD40
:05013D000FD5F0EA22DD
:00000001FF
