:1006A100012001011F010116000E213F065B4F666B
:1006B1006D7D077F6F0001400808170000000000F2
:0306C10000000036
:1006C500EB1392B4D2B6AF207E001206D6C2B6AFF7
:0106D5002004
:1006D600E4FDFCC3ED9FEC9E50070DBD00010C80B0
:0106E600F221
:0106E70022F0
:0406E800AB07AA06AC
:1006EC00E4F583F5827C007D0CAF03AE0212023C74
:0C06FC00C3E5829FE5839E5003A380E9C4
:0107080022CE
:10053500AB2FAA30A9311202CEFBAAF07C007D0AAE
:10054500FFAE0212024E7C007D0A12024E8C348DE3
:10055500357C007D0AAF03AE0212024E8C838D827C
:10056500E535C4F8540FC868FFE534C454F048FEB7
:0E057500EF2582F537EE3583F536E4FD7F8EF7
:04058300AB05A90714
:10058700E4FAAF1FFE1206D6C2B51206D2D2B5AF35
:10059700201206D60AE91206C6E9C313F90ABA09F0
:1005A700F47A011206C5EBC313FB0ABA09F5C2B503
:0105B7002221
:0205B800AB078F
:1005BA00E4F9F53EAF1FFE1206D6C2B51206D2D234
:1005CA00B5AF201206D67A011206C5EBC313FB0A91
:1005DA00BA08F5EB1392B4D2B6AF207E001206D653
:1005EA00E4FAC2B6AF167E001206D6A2B4E433F518
:1005FA003E5401FFA802088002C333D8FC4201C35B
:10060A00E5209516FFE49400FE1206D6D2B6AF2076
:0D061A007E001206D60ABA08C9C2B5AF01AB
:0106270022B0
:05073E00C2B6C2B522A5
:0A0003008B2F8A3089318C328D3347
:10000D00E53330E04912057F7F811205B875380060
:10001D008F39E5395470FFE4C4F854F0C868FEEF29
:10002D00C4540F48FF7C007D0A12023C8E348F357C
:10003D00753600E539540FF5372535FFE53635347E
:10004D00AB2FAA30A93190000C8FF0120306E533C7
:10005D0030E14912057F7F831205B87538008F395D
:10006D00E5395470FFE4C4F854F0C868FEEFC45489
:10007D000F48FF7C007D0A12023C8E348F35753699
:10008D0000E539540FF5372535FFE5343536AB2FFF
:10009D00AA30A93190000A8FF0120306E53320E251
:1000AD000302015112057F7F851205B87538008F47
:1000BD0039E53954806401704FE5395410FFE4C4BB
:1000CD00F854F0C868FEEFC4540F48FF7C007D0A59
:1000DD0012023C8E348F35753600E539540FF537E5
:1000ED007E00E53954207805CEC313CE13D8F9FF21
:1000FD00E5352537FBE5343536FA7C007D0C1202EB
:08010D003CEF2BFFEE3A802EBF
:10011500E5395430FFE4C4F854F0C868FEEFC45420
:100125000F48FF7C007D0A12023C8E3A8F3B753CDE
:1001350000E539540FF53D253BFFE53A353CAB2F3E
:0C014500AA30A9319000088FF0120306C8
:10015100E53330E44912057F7F871205B875380011
:100161008F39E5395430FFE4C4F854F0C868FEEF24
:10017100C4540F48FF7C007D0A12023C8E348F3537
:10018100753600E539540FF5372535FFE534353639
:10019100AB2FAA30A9319000028FF0120306E5338C
:1001A10030E54912057F7F891205B87538008F390E
:1001B100E5395410FFE4C4F854F0C868FEEFC454A4
:1001C1000F48FF7C007D0A12023C8E348F35753654
:1001D10000E539540FF5372535FFE5343536AB2FBA
:1001E100AA30A9319000048FF0120306E53330E6FE
:1001F1004912057F7F871205B87538008F39E539B7
:1002010054F0FFE4C4F854F0C868FEEFC4540F483A
:10021100FF7C007D0A12023C8E348F35753600E575
:1002210039540FF5372535FFE5343536AB2FAA3074
:0A023100A9319000068FF0120306B9
:01023B0022A0
:0A03EF008B2F8A3089318C328D3358
:1003F900E4F534F535F582F583F536F537E533302F
:10040900E00D90000C12053BAD377F80120583E5A6
:100419003330E10D90000A120535AD377F821205A0
:1004290083E53330E20D900008120535AD377F843E
:10043900120583E53330E313AB2FAA30A9319000BD
:100449000212053BAD377F86120583E53330E4138D
:10045900AB2FAA30A93190000412053BAD377F8834
:10046900120583E53330E513AB2FAA30A93190008B
:100479000612053BAD377F9C120583E53330E61F35
:10048900AB2FAA30A9311202A3FFAEF07C007D0A7E
:0F04990012024E8D8212057FAD827F9A1205836B
:0104A8002231
:0307430002073E6C
:10062800EFB40800504A900635F828287302064DA2
:1006380002065102065502065902065D02066402C8
:10064800066B020672C2A4800EC2A48011C2A480E6
:1006580014C2A48017D2A4C2A3C2A222D2A4C2A345
:10066800D2A222D2A4D2A3C2A222D2A4D2A3D2A21C
:01067800225F
:10070900E4FBAF0312062874172BF8E6F5807F3255
:0C0719007E001206D6E4F5800BBB08E65B
:0107250022B1
:1006790012074375140075150F7512007513277548
:100689001000751109750A00750B14750C00750DAC
:0806990007750E00750F182211
:0D0726007B007A0079087D3F7C000203EF24
:100333007B007A0079087D3F7C00120003AE0CAF8E
:100343000D7C007D0A12024E7C007D0A12024E745F
:10035300212DF8E6F51EAE0CAF0D7C007D0A1202CE
:100363004E74212DF8E6F51DAE0AAF0B7C007D0A15
:1003730012024E7C007D0A12024E74212DF8E6F51E
:100383001CAE0AAF0B7C007D0A12024E74212DF8BD
:10039300E6F51BAE10AF117C007D0A12024E7C0005
:1003A3007D0A12024E74212DF8E6F51AAE10AF1134
:1003B3007C007D0A12024E74212DF8E6F519AE1267
:1003C300AF137C007D0A12024E7C007D0A12024E9E
:1003D30074212DF8E6F518AE12AF137C007D0A12D6
:0C03E300024E74212DF8E6F51702070900
:0B07330012067912072612033380FB28
:030000000204A94E
:0C04A900787FE4F6D8FD75813E0204F077
:10023C00EF8DF0A4A8F0CF8CF0A428CE8DF0A42ED6
:02024C00FE2290
:10024E00BC000BBE0029EF8DF084FFADF022E4CC94
:10025E00F875F008EF2FFFEE33FEEC33FCEE9DEC5D
:10026E00984005FCEE9DFE0FD5F0E9E4CEFD22EDA3
:10027E00F8F5F0EE8420D21CFEADF075F008EF2FED
:10028E00FFED33FD4007985006D5F0F222C398FDDE
:05029E000FD5F0EA227B
:1002A300BB010A89828A83E0F5F0A3E02250068726
:1002B300F009E71922BBFE07E3F5F009E3192289E8
:0B02C300828A83E493F5F0740193221B
:1002CE00BB0110E58229F582E5833AF583E0F5F06E
:1002DE00A3E0225009E92582F886F008E622BBFE4B
:1002EE000AE92582F8E2F5F008E222E5832AF58391
:0802FE00E993F5F0A3E9932256
:10030600F8BB0111E58229F582E5833AF583E8F029
:10031600E5F0A3F0225009E92582C8F608A6F022E6
:0D032600BBFE09E92582C8F2E5F008F222CD
:1004B500020733E493A3F8E493A34003F68001F223
:1004C50008DFF48029E493A3F85407240CC8C33348
:1004D500C4540F4420C8834004F456800146F6DF17
:1004E500E4800B01020408102040809006A1E47E00
:1004F500019360BCA3FF543F30E509541FFEE4930C
:10050500A360010ECF54C025E060A840B8E493A3D2
:10051500FAE493A3F8E493A3C8C582C8CAC583CAFD
:10052500F0A3C8C582C8CAC583CADFE9DEE780BEB5
:0106C4000035
:00000001FF
