:10072900020A000A1C1A003F0006005B004F00661F
:10073900006D007D0007007F006F00000001004090
:0E07490000080208000102360001021800003C
:10056F00EF64014E7008C2A2C2A3C2A48D80EF64D3
:10057F00024E7008D2A2C2A3C2A48D80EF64034EB4
:10058F007008C2A2D2A3C2A48D80EF64044E70087B
:10059F00D2A2D2A3C2A48D80EF64054E7008C2A26E
:1005AF00C2A3D2A48D80EF64064E7008D2A2C2A35C
:1005BF00D2A48D80EF64074E7008C2A2D2A3D2A43A
:1005CF008D80EF64084E7008D2A2D2A3D2A48D8082
:0105DF0022F9
:0E07BD00ED25E0241AF8E6FC08E6FD02056FC3
:100006008C4D8D4EEF64014E7033C2A2C2A3C2A4C2
:10001600EFB54E0AEEB54D067C007D0180047C00EE
:100026007D00EB25E0241AF8E6F58308E62DFDECC5
:1000360035834D60047D8080027D008D80EF6402F3
:100046004E7033D2A2C2A3C2A4EFB54E0AEEB54D8E
:10005600067C007D0180047C007D00EB25E0241AEF
:10006600F8E6F58308E62DFDEC35834D60047D80CA
:1000760080027D008D80EF64034E7033C2A2D2A34E
:10008600C2A4EFB54E0AEEB54D067C007D01800494
:100096007C007D00EB25E0241AF8E6F58308E62DC2
:1000A600FDEC35834D60047D8080027D008D80EF00
:1000B60064044E7033D2A2D2A3C2A4EFB54E0AEEA8
:1000C600B54D067C007D0180047C007D00EB25E0BB
:1000D600241AF8E6F58308E62DFDEC35834D600419
:1000E6007D8080027D008D80EF64054E7033C2A254
:1000F600C2A3D2A4EFB54E0AEEB54D067C007D0133
:1001060080047C007D00EB25E0241AF8E6F58308E0
:10011600E62DFDEC35834D60047D8080027D008DEB
:1001260080EF64064E7033D2A2C2A3D2A4EFB54EBE
:100136000AEEB54D067C007D0180047C007D00EB57
:1001460025E0241AF8E6F58308E62DFDEC35834D07
:1001560060047D8080027D008D80EF64074E7033E1
:10016600C2A2D2A3D2A4EFB54E0AEEB54D067C00CC
:100176007D0180047C007D00EB25E0241AF8E6F57D
:100186008308E62DFDEC35834D60047D8080027D7D
:10019600008D80EF64084E7031D2A2D2A3D2A4EFB4
:1001A600B54E0AEEB54D067E007F0180047E007FC7
:1001B60000EB25E0241AF8E6FC08E62FFFEE3C4F9C
:0B01C60060047F8080027F008F802299
:0707D300E475F00102041BB4
:10061E008B4A8A4B894C9000021203E3641D45F00D
:10062E0070131207D3AB4AAA4BA94C900002E47583
:10063E00F0010204A0AB4AAA4BA94C900002E4754B
:06064E00F001120453222A
:100654008B478A4889499000041203E3641E45F0DD
:10066400701312061EAB47AA48A949900004E4750A
:10067400F0010204A0AB47AA48A949900004E4751C
:06068400F00112045322F4
:10068A008B448A4589469000061203E3641745F0B5
:10069A007012120654AB44AA45A946900006E4F526
:1006AA00F00204A0AB44AA45A946900006E475F0FE
:0506BA000112045322AF
:1006BF008B418A4289439000081203E3643B45F063
:1006CF00701212068AAB41AA42A943900008E4F5C2
:1006DF00F00204A0AB41AA42A943900008E475F0D0
:0506EF0001120453227A
:1006F4008B3E8A3F894090000A1203E3643B45F035
:1007040070121206BFAB3EAA3FA94090000AE4F55E
:10071400F00204A0AB3EAA3FA94090000AE475F0A1
:05072400011204532244
:1005E0007C007D0A12038E7C007D0A12038E7F063A
:0905F0007E001207BDAF39AE38E0
:0405F900AB07AA069C
:1005FD009000007C007D0CAF03AE0212037CC3E5BE
:10060D00829FE5839E5009E51945187003A380E389
:01061D0022BA
:1007AA0020B20F0509E50970020508750800540111
:0307BA00F509221C
:1001D100753800753905753A00753B2D7B007A003D
:0E01E100790C1206F4E509450860030202A439
:1001EF00F53CF53DF53C753D01D3E53D953BE53CD3
:1001FF00953A40030202A4AE10AF117C007D0A12A3
:10020F00038E7C007D0A12038E7F081205F0AE105C
:10021F00AF117C007D0A12038E7F071205F0AE0E20
:10022F00AF0F1205E0AE0EAF0F7C007D0A12038EEA
:10023F007F051205F0AE0CAF0D7C037DE812038E27
:10024F007C007D0A12038E7F041205F0AE0CAF0DF9
:10025F007C007D6412038E7C007D0A12038E7F0367
:10026F001205F0AE0CAF0D7C007D0A12038E7C00E0
:10027F007D0A12038E7F021205F0AE0CAF0D7C00CB
:10028F007D0A12038E7F011205F0053DE53D7002D8
:05029F00053C0201F81E
:0B02A400E50964014508600302037BCC
:1002AF00F53CF53DF53C753D01D3E53D953BE53C12
:1002BF00953A400302037BAE12AF137C007D0C1204
:1002CF00038E7E007F0ACFCDCFCECCCE12038E7C95
:1002DF00007D0A12038E7F081205F0AE12AF137C59
:1002EF00007D0C12038E7E007F0ACFCDCFCECCCEF9
:1002FF0012038E7F071205F0AE14AF151205E0AE94
:10030F0014AF157C007D0A12038E7F051205F0AE27
:10031F0016AF177C007D0A12038E7C007D0A120334
:10032F008E7F041205F0AE16AF177C007D0A120304
:10033F008E7F031205F0AD2FAC2E7F027E001205CB
:10034F006F1205F5D3E513940CE51294007C004071
:10035F00047D7380027D777F017E0012056F120589
:0C036F00F5053DE53D7002053C0202B8BA
:01037B00225F
:030003000207836E
:10078300C0E0C0D075D000C006C007E509450870B9
:1007930005FE7F0180047E007F008E088F09D0074D
:0707A300D006D0D0D0E032F7
:10075800D2AFD2A8D288750C07750DE8750E007552
:100768000F0975100075111875120075130A7514A4
:0B0778000075151A7516007517372262
:0307DA00020758BB
:0807CB001207DA1201D180FBD4
:030000000204E314
:0C04E300787FE4F6D8FD75814E02052AF2
:10037C00EF8DF0A4A8F0CF8CF0A428CE8DF0A42E95
:02038C00FE224F
:10038E00BC000BBE0029EF8DF084FFADF022E4CC53
:10039E00F875F008EF2FFFEE33FEEC33FCEE9DEC1C
:1003AE00984005FCEE9DFE0FD5F0E9E4CEFD22ED62
:1003BE00F8F5F0EE8420D21CFEADF075F008EF2FAC
:1003CE00FFED33FD4007985006D5F0F222C398FD9D
:0503DE000FD5F0EA223A
:1003E300BB0110E58229F582E5833AF583E0F5F058
:1003F300A3E0225009E92582F886F008E622BBFE35
:100403000AE92582F8E2F5F008E222E5832AF5837A
:08041300E993F5F0A3E993223F
:10041B00BB010789828A830204CD500B09C5F027E3
:10042B00F7C5F01937F722BBFE0D09F8E325F0F3FA
:10043B00C5F019E338F322F889828A837401932576
:08044B00F0C5F0F8E49338223B
:10045300BB010DC58229C582C5833AC5830204CD7C
:100463005011C58229F808E5F026F618F5F0E58263
:1004730036F622BBFE11C58229F808E225F0F5F015
:10048300F218E23582F222F8E58229F582E5832A21
:0D049300F58374019325F0F5F0E493382211
:1004A000F8BB0111E58229F582E5833AF583E8F08E
:1004B000E5F0A3F0225009E92582C8F608A6F0224B
:0D04C000BBFE09E92582C8F2E5F008F22232
:1004EF000207CBE493A3F8E493A34003F68001F251
:1004FF0008DFF48029E493A3F85407240CC8C3330E
:10050F00C4540F4420C8834004F456800146F6DFDC
:10051F00E4800B0102040810204080900729E47E3C
:10052F00019360BCA3FF543F30E509541FFEE493D1
:10053F00A360010ECF54C025E060A840B8E493A398
:10054F00FAE493A3F8E493A3C8C582C8CAC583CAC3
:10055F00F0A3C8C582C8CAC583CADFE9DEE780BE7B
:0107570000A1
:1004CD00C5F0F8A3E028F0C5F0F8E58215827002BA
:0604DD001583E038F02257
:00000001FF
