:1001F6000208000A1C0A003F0006005B004F00666A
:10020600006D007D0007007F00EF00000001004048
:020216000008DE
:10008F00EF64014E7008C2A2C2A3C2A48D80EF64B8
:10009F00024E7008D2A2C2A3C2A48D80EF64034E99
:1000AF007008C2A2D2A3C2A48D80EF64044E700860
:1000BF00D2A2D2A3C2A48D80EF64054E7008C2A253
:1000CF00C2A3D2A48D80EF64064E7008D2A2C2A341
:1000DF00D2A48D80EF64074E7008C2A2D2A3D2A41F
:1000EF008D80EF64084E7008D2A2D2A3D2A48D8067
:0100FF0022DE
:0E021900ED25E0240AF8E6FC08E6FD02008F61
:0701D0007E001202197F0AF4
:0401D700AB07AA06C2
:1001DB009000007C007D0CAF03AE02120169C3E5F9
:0A01EB00829FE5839E5003A380E984
:0101F50022E7
:05010000E4F526F527DF
:10010500AE26AF277C007D0A12017B8C288D29AE97
:1001150026AF277C007D0A12017B7C007D0A120137
:100125007B8C2A8D2BE4F52CF52DF52C752D01AD49
:100135002BAC2A7F081201D0AD29AC287F0712010C
:10014500D0052DE52D7002052CD3943CE52C9400AB
:0201550040DD8B
:100157000527E52770020526D3940AE52694004073
:020167009D22D7
:03000000020003F8
:0C000300787FE4F6D8FD75812D02004ADC
:10016900EF8DF0A4A8F0CF8CF0A428CE8DF0A42EAA
:02017900FE2264
:10017B00BC000BBE0029EF8DF084FFADF022E4CC68
:10018B00F875F008EF2FFFEE33FEEC33FCEE9DEC31
:10019B00984005FCEE9DFE0FD5F0E9E4CEFD22ED77
:1001AB00F8F5F0EE8420D21CFEADF075F008EF2FC1
:1001BB00FFED33FD4007985006D5F0F222C398FDB2
:0501CB000FD5F0EA224F
:10000F00020100E493A3F8E493A34003F68001F206
:10001F0008DFF48029E493A3F85407240CC8C333F2
:10002F00C4540F4420C8834004F456800146F6DFC1
:10003F00E4800B01020408102040809001F6E47E5A
:10004F00019360BCA3FF543F30E509541FFEE493B6
:10005F00A360010ECF54C025E060A840B8E493A37D
:10006F00FAE493A3F8E493A3C8C582C8CAC583CAA8
:10007F00F0A3C8C582C8CAC583CADFE9DEE780BE60
:0102180000E5
:00000001FF
