:0300000002004CAF
:200008000000E2FBEAF2802C0000E0FBEAF08024E6B50202EBF62200E2B50202EBF22200DE
:20002800E0B50202EBF02230F6E0A88220F5D3EAC6F582228B822230F6E6A88220F5D980EE
:01004800CFE8
:0300A5000200490D
:030049000201BDF4
:2000A800AE828EA02285820885830990000C1201C0AE82AF837C007D00C3EC9EED9F50079E
:2000C8000CBC00F50D80F2227E007F00EE30E708EE2EFEEF33FF800CEE2EFCEF33FD74013D
:2000E8004CFE8D078E828F83C007C0061200A89000641200ADD006D00780D17E017F00EE14
:200108004F70057E01FF8006EE2EFEEF33FF8E828F83C007C0061200A89000641200ADD0E8
:2001280006D00780DA7F00EF30E23C8FF005F07D80E4FE3392D28008A2D2EE13FEED13FDE2
:20014800D5F0F58FF005F07B017C008006EB2BFBEC33FCD5F0F7EB2DF582EC3EF583C0070B
:200168001200A8D007803A8FF005F07D017E008006ED2DFDEE33FED5F0F78FF005F07B80D5
:20018800E4FC3392D28008A2D2EC13FCEB13FBD5F0F5EB2DF582EC3EF583C0071200A8D0B4
:1801A800078F06EE045407FF900190C0071200ADD00702012F02012D77
:06007B00E478FFF6D8FD59
:200059007900E94400601B7A009001E1780175A000E493F2A308B8000205A0D9F4DAF2756B
:02007900A0FFE6
:1D01C000E5828508F0A4C582C0F08509F0A4D0F025F0C5838508F0A42583F5832201
:200081007800E84400600A790175A000E4F309D8FC7800E84400600C7900900001E4F0A37D
:0400A100D8FCD9FAB4
:0D004C007581091201DDE5826003020049A3
:0401DD007582002205
:00000001FF
